{
	"contracts/SmartContractWallet.sol": {
		"SmartContractWallet": {
			"abi": [
				{
					"inputs": [],
					"stateMutability": "nonpayable",
					"type": "constructor"
				},
				{
					"inputs": [
						{
							"internalType": "address",
							"name": "",
							"type": "address"
						}
					],
					"name": "allowance",
					"outputs": [
						{
							"internalType": "uint256",
							"name": "",
							"type": "uint256"
						}
					],
					"stateMutability": "view",
					"type": "function"
				},
				{
					"inputs": [],
					"name": "confirmationsFromGuardiansForReset",
					"outputs": [
						{
							"internalType": "uint256",
							"name": "",
							"type": "uint256"
						}
					],
					"stateMutability": "view",
					"type": "function"
				},
				{
					"inputs": [
						{
							"internalType": "address",
							"name": "",
							"type": "address"
						}
					],
					"name": "guardians",
					"outputs": [
						{
							"internalType": "bool",
							"name": "",
							"type": "bool"
						}
					],
					"stateMutability": "view",
					"type": "function"
				},
				{
					"inputs": [
						{
							"internalType": "address",
							"name": "",
							"type": "address"
						}
					],
					"name": "isAllowedToSend",
					"outputs": [
						{
							"internalType": "bool",
							"name": "",
							"type": "bool"
						}
					],
					"stateMutability": "view",
					"type": "function"
				},
				{
					"inputs": [],
					"name": "owner",
					"outputs": [
						{
							"internalType": "address payable",
							"name": "",
							"type": "address"
						}
					],
					"stateMutability": "view",
					"type": "function"
				},
				{
					"inputs": [
						{
							"internalType": "address payable",
							"name": "_newOwner",
							"type": "address"
						}
					],
					"name": "proposeNewOwner",
					"outputs": [],
					"stateMutability": "nonpayable",
					"type": "function"
				},
				{
					"inputs": [
						{
							"internalType": "address",
							"name": "_for",
							"type": "address"
						},
						{
							"internalType": "uint256",
							"name": "_amount",
							"type": "uint256"
						}
					],
					"name": "setAllowance",
					"outputs": [],
					"stateMutability": "nonpayable",
					"type": "function"
				},
				{
					"inputs": [
						{
							"internalType": "address",
							"name": "_guardian",
							"type": "address"
						},
						{
							"internalType": "bool",
							"name": "_isGuardian",
							"type": "bool"
						}
					],
					"name": "setGuardian",
					"outputs": [],
					"stateMutability": "nonpayable",
					"type": "function"
				},
				{
					"inputs": [
						{
							"internalType": "address payable",
							"name": "_to",
							"type": "address"
						},
						{
							"internalType": "uint256",
							"name": "_amount",
							"type": "uint256"
						},
						{
							"internalType": "bytes",
							"name": "_payload",
							"type": "bytes"
						}
					],
					"name": "transfer",
					"outputs": [
						{
							"internalType": "bytes",
							"name": "",
							"type": "bytes"
						}
					],
					"stateMutability": "nonpayable",
					"type": "function"
				},
				{
					"stateMutability": "payable",
					"type": "receive"
				}
			],
			"devdoc": {
				"kind": "dev",
				"methods": {},
				"version": 1
			},
			"evm": {
				"assembly": "    /* \"contracts/SmartContractWallet.sol\":234:2633  contract SmartContractWallet {... */\n  mstore(0x40, 0x80)\n    /* \"contracts/SmartContractWallet.sol\":670:730  constructor() {... */\n  callvalue\n  dup1\n  iszero\n  tag_1\n  jumpi\n  0x00\n  dup1\n  revert\ntag_1:\n  pop\n    /* \"contracts/SmartContractWallet.sol\":711:721  msg.sender */\n  caller\n    /* \"contracts/SmartContractWallet.sol\":695:700  owner */\n  0x00\n  dup1\n    /* \"contracts/SmartContractWallet.sol\":695:722  owner = payable(msg.sender) */\n  0x0100\n  exp\n  dup2\n  sload\n  dup2\n  0xffffffffffffffffffffffffffffffffffffffff\n  mul\n  not\n  and\n  swap1\n  dup4\n  0xffffffffffffffffffffffffffffffffffffffff\n  and\n  mul\n  or\n  swap1\n  sstore\n  pop\n    /* \"contracts/SmartContractWallet.sol\":234:2633  contract SmartContractWallet {... */\n  dataSize(sub_0)\n  dup1\n  dataOffset(sub_0)\n  0x00\n  codecopy\n  0x00\n  return\nstop\n\nsub_0: assembly {\n        /* \"contracts/SmartContractWallet.sol\":234:2633  contract SmartContractWallet {... */\n      mstore(0x40, 0x80)\n      jumpi(tag_1, lt(calldatasize, 0x04))\n      shr(0xe0, calldataload(0x00))\n      dup1\n      0x3e5beab9\n      gt\n      tag_12\n      jumpi\n      dup1\n      0x3e5beab9\n      eq\n      tag_7\n      jumpi\n      dup1\n      0x83012be1\n      eq\n      tag_8\n      jumpi\n      dup1\n      0x8da5cb5b\n      eq\n      tag_9\n      jumpi\n      dup1\n      0xb1f8100d\n      eq\n      tag_10\n      jumpi\n      dup1\n      0xbe45fd62\n      eq\n      tag_11\n      jumpi\n      jump(tag_2)\n    tag_12:\n      dup1\n      0x0633b14a\n      eq\n      tag_3\n      jumpi\n      dup1\n      0x0bc605ad\n      eq\n      tag_4\n      jumpi\n      dup1\n      0x2b8a1c5a\n      eq\n      tag_5\n      jumpi\n      dup1\n      0x310ec4a7\n      eq\n      tag_6\n      jumpi\n      jump(tag_2)\n    tag_1:\n      jumpi(tag_2, calldatasize)\n      stop\n    tag_2:\n      0x00\n      dup1\n      revert\n        /* \"contracts/SmartContractWallet.sol\":413:454  mapping(address => bool) public guardians */\n    tag_3:\n      callvalue\n      dup1\n      iszero\n      tag_15\n      jumpi\n      0x00\n      dup1\n      revert\n    tag_15:\n      pop\n      tag_16\n      0x04\n      dup1\n      calldatasize\n      sub\n      dup2\n      add\n      swap1\n      tag_17\n      swap2\n      swap1\n      tag_18\n      jump\t// in\n    tag_17:\n      tag_19\n      jump\t// in\n    tag_16:\n      mload(0x40)\n      tag_20\n      swap2\n      swap1\n      tag_21\n      jump\t// in\n    tag_20:\n      mload(0x40)\n      dup1\n      swap2\n      sub\n      swap1\n      return\n        /* \"contracts/SmartContractWallet.sol\":357:404  mapping(address => bool) public isAllowedToSend */\n    tag_4:\n      callvalue\n      dup1\n      iszero\n      tag_22\n      jumpi\n      0x00\n      dup1\n      revert\n    tag_22:\n      pop\n      tag_23\n      0x04\n      dup1\n      calldatasize\n      sub\n      dup2\n      add\n      swap1\n      tag_24\n      swap2\n      swap1\n      tag_18\n      jump\t// in\n    tag_24:\n      tag_25\n      jump\t// in\n    tag_23:\n      mload(0x40)\n      tag_26\n      swap2\n      swap1\n      tag_21\n      jump\t// in\n    tag_26:\n      mload(0x40)\n      dup1\n      swap2\n      sub\n      swap1\n      return\n        /* \"contracts/SmartContractWallet.sol\":738:931  function setGuardian(address _guardian, bool _isGuardian) public {... */\n    tag_5:\n      callvalue\n      dup1\n      iszero\n      tag_27\n      jumpi\n      0x00\n      dup1\n      revert\n    tag_27:\n      pop\n      tag_28\n      0x04\n      dup1\n      calldatasize\n      sub\n      dup2\n      add\n      swap1\n      tag_29\n      swap2\n      swap1\n      tag_30\n      jump\t// in\n    tag_29:\n      tag_31\n      jump\t// in\n    tag_28:\n      stop\n        /* \"contracts/SmartContractWallet.sol\":1548:1868  function setAllowance(address _for, uint _amount) public {... */\n    tag_6:\n      callvalue\n      dup1\n      iszero\n      tag_32\n      jumpi\n      0x00\n      dup1\n      revert\n    tag_32:\n      pop\n      tag_33\n      0x04\n      dup1\n      calldatasize\n      sub\n      dup2\n      add\n      swap1\n      tag_34\n      swap2\n      swap1\n      tag_35\n      jump\t// in\n    tag_34:\n      tag_36\n      jump\t// in\n    tag_33:\n      stop\n        /* \"contracts/SmartContractWallet.sol\":309:350  mapping(address => uint) public allowance */\n    tag_7:\n      callvalue\n      dup1\n      iszero\n      tag_37\n      jumpi\n      0x00\n      dup1\n      revert\n    tag_37:\n      pop\n      tag_38\n      0x04\n      dup1\n      calldatasize\n      sub\n      dup2\n      add\n      swap1\n      tag_39\n      swap2\n      swap1\n      tag_18\n      jump\t// in\n    tag_39:\n      tag_40\n      jump\t// in\n    tag_38:\n      mload(0x40)\n      tag_41\n      swap2\n      swap1\n      tag_42\n      jump\t// in\n    tag_41:\n      mload(0x40)\n      dup1\n      swap2\n      sub\n      swap1\n      return\n        /* \"contracts/SmartContractWallet.sol\":602:661  uint public constant confirmationsFromGuardiansForReset = 3 */\n    tag_8:\n      callvalue\n      dup1\n      iszero\n      tag_43\n      jumpi\n      0x00\n      dup1\n      revert\n    tag_43:\n      pop\n      tag_44\n      tag_45\n      jump\t// in\n    tag_44:\n      mload(0x40)\n      tag_46\n      swap2\n      swap1\n      tag_42\n      jump\t// in\n    tag_46:\n      mload(0x40)\n      dup1\n      swap2\n      sub\n      swap1\n      return\n        /* \"contracts/SmartContractWallet.sol\":272:300  address payable public owner */\n    tag_9:\n      callvalue\n      dup1\n      iszero\n      tag_47\n      jumpi\n      0x00\n      dup1\n      revert\n    tag_47:\n      pop\n      tag_48\n      tag_49\n      jump\t// in\n    tag_48:\n      mload(0x40)\n      tag_50\n      swap2\n      swap1\n      tag_51\n      jump\t// in\n    tag_50:\n      mload(0x40)\n      dup1\n      swap2\n      sub\n      swap1\n      return\n        /* \"contracts/SmartContractWallet.sol\":939:1540  function proposeNewOwner(address payable _newOwner) public {... */\n    tag_10:\n      callvalue\n      dup1\n      iszero\n      tag_52\n      jumpi\n      0x00\n      dup1\n      revert\n    tag_52:\n      pop\n      tag_53\n      0x04\n      dup1\n      calldatasize\n      sub\n      dup2\n      add\n      swap1\n      tag_54\n      swap2\n      swap1\n      tag_55\n      jump\t// in\n    tag_54:\n      tag_56\n      jump\t// in\n    tag_53:\n      stop\n        /* \"contracts/SmartContractWallet.sol\":1876:2587  function transfer(address payable _to, uint _amount, bytes memory _payload) public returns(bytes memory) {... */\n    tag_11:\n      callvalue\n      dup1\n      iszero\n      tag_57\n      jumpi\n      0x00\n      dup1\n      revert\n    tag_57:\n      pop\n      tag_58\n      0x04\n      dup1\n      calldatasize\n      sub\n      dup2\n      add\n      swap1\n      tag_59\n      swap2\n      swap1\n      tag_60\n      jump\t// in\n    tag_59:\n      tag_61\n      jump\t// in\n    tag_58:\n      mload(0x40)\n      tag_62\n      swap2\n      swap1\n      tag_63\n      jump\t// in\n    tag_62:\n      mload(0x40)\n      dup1\n      swap2\n      sub\n      swap1\n      return\n        /* \"contracts/SmartContractWallet.sol\":413:454  mapping(address => bool) public guardians */\n    tag_19:\n      mstore(0x20, 0x03)\n      dup1\n      0x00\n      mstore\n      keccak256(0x00, 0x40)\n      0x00\n      swap2\n      pop\n      sload\n      swap1\n      0x0100\n      exp\n      swap1\n      div\n      0xff\n      and\n      dup2\n      jump\t// out\n        /* \"contracts/SmartContractWallet.sol\":357:404  mapping(address => bool) public isAllowedToSend */\n    tag_25:\n      mstore(0x20, 0x02)\n      dup1\n      0x00\n      mstore\n      keccak256(0x00, 0x40)\n      0x00\n      swap2\n      pop\n      sload\n      swap1\n      0x0100\n      exp\n      swap1\n      div\n      0xff\n      and\n      dup2\n      jump\t// out\n        /* \"contracts/SmartContractWallet.sol\":738:931  function setGuardian(address _guardian, bool _isGuardian) public {... */\n    tag_31:\n        /* \"contracts/SmartContractWallet.sol\":836:841  owner */\n      0x00\n      dup1\n      sload\n      swap1\n      0x0100\n      exp\n      swap1\n      div\n      0xffffffffffffffffffffffffffffffffffffffff\n      and\n        /* \"contracts/SmartContractWallet.sol\":822:841  msg.sender == owner */\n      0xffffffffffffffffffffffffffffffffffffffff\n      and\n        /* \"contracts/SmartContractWallet.sol\":822:832  msg.sender */\n      caller\n        /* \"contracts/SmartContractWallet.sol\":822:841  msg.sender == owner */\n      0xffffffffffffffffffffffffffffffffffffffff\n      and\n      eq\n        /* \"contracts/SmartContractWallet.sol\":814:877  require(msg.sender == owner, \"You are not the owner, aborting\") */\n      tag_65\n      jumpi\n      mload(0x40)\n      0x08c379a000000000000000000000000000000000000000000000000000000000\n      dup2\n      mstore\n      0x04\n      add\n      tag_66\n      swap1\n      tag_67\n      jump\t// in\n    tag_66:\n      mload(0x40)\n      dup1\n      swap2\n      sub\n      swap1\n      revert\n    tag_65:\n        /* \"contracts/SmartContractWallet.sol\":911:922  _isGuardian */\n      dup1\n        /* \"contracts/SmartContractWallet.sol\":888:897  guardians */\n      0x03\n        /* \"contracts/SmartContractWallet.sol\":888:908  guardians[_guardian] */\n      0x00\n        /* \"contracts/SmartContractWallet.sol\":898:907  _guardian */\n      dup5\n        /* \"contracts/SmartContractWallet.sol\":888:908  guardians[_guardian] */\n      0xffffffffffffffffffffffffffffffffffffffff\n      and\n      0xffffffffffffffffffffffffffffffffffffffff\n      and\n      dup2\n      mstore\n      0x20\n      add\n      swap1\n      dup2\n      mstore\n      0x20\n      add\n      0x00\n      keccak256\n      0x00\n        /* \"contracts/SmartContractWallet.sol\":888:922  guardians[_guardian] = _isGuardian */\n      0x0100\n      exp\n      dup2\n      sload\n      dup2\n      0xff\n      mul\n      not\n      and\n      swap1\n      dup4\n      iszero\n      iszero\n      mul\n      or\n      swap1\n      sstore\n      pop\n        /* \"contracts/SmartContractWallet.sol\":738:931  function setGuardian(address _guardian, bool _isGuardian) public {... */\n      pop\n      pop\n      jump\t// out\n        /* \"contracts/SmartContractWallet.sol\":1548:1868  function setAllowance(address _for, uint _amount) public {... */\n    tag_36:\n        /* \"contracts/SmartContractWallet.sol\":1638:1643  owner */\n      0x00\n      dup1\n      sload\n      swap1\n      0x0100\n      exp\n      swap1\n      div\n      0xffffffffffffffffffffffffffffffffffffffff\n      and\n        /* \"contracts/SmartContractWallet.sol\":1624:1643  msg.sender == owner */\n      0xffffffffffffffffffffffffffffffffffffffff\n      and\n        /* \"contracts/SmartContractWallet.sol\":1624:1634  msg.sender */\n      caller\n        /* \"contracts/SmartContractWallet.sol\":1624:1643  msg.sender == owner */\n      0xffffffffffffffffffffffffffffffffffffffff\n      and\n      eq\n        /* \"contracts/SmartContractWallet.sol\":1616:1679  require(msg.sender == owner, \"You are not the owner, aborting\") */\n      tag_69\n      jumpi\n      mload(0x40)\n      0x08c379a000000000000000000000000000000000000000000000000000000000\n      dup2\n      mstore\n      0x04\n      add\n      tag_70\n      swap1\n      tag_67\n      jump\t// in\n    tag_70:\n      mload(0x40)\n      dup1\n      swap2\n      sub\n      swap1\n      revert\n    tag_69:\n        /* \"contracts/SmartContractWallet.sol\":1708:1715  _amount */\n      dup1\n        /* \"contracts/SmartContractWallet.sol\":1690:1699  allowance */\n      0x01\n        /* \"contracts/SmartContractWallet.sol\":1690:1705  allowance[_for] */\n      0x00\n        /* \"contracts/SmartContractWallet.sol\":1700:1704  _for */\n      dup5\n        /* \"contracts/SmartContractWallet.sol\":1690:1705  allowance[_for] */\n      0xffffffffffffffffffffffffffffffffffffffff\n      and\n      0xffffffffffffffffffffffffffffffffffffffff\n      and\n      dup2\n      mstore\n      0x20\n      add\n      swap1\n      dup2\n      mstore\n      0x20\n      add\n      0x00\n      keccak256\n        /* \"contracts/SmartContractWallet.sol\":1690:1715  allowance[_for] = _amount */\n      dup2\n      swap1\n      sstore\n      pop\n        /* \"contracts/SmartContractWallet.sol\":1741:1742  0 */\n      0x00\n        /* \"contracts/SmartContractWallet.sol\":1731:1738  _amount */\n      dup2\n        /* \"contracts/SmartContractWallet.sol\":1731:1742  _amount > 0 */\n      gt\n        /* \"contracts/SmartContractWallet.sol\":1728:1861  if(_amount > 0) {... */\n      iszero\n      tag_71\n      jumpi\n        /* \"contracts/SmartContractWallet.sol\":1783:1787  true */\n      0x01\n        /* \"contracts/SmartContractWallet.sol\":1759:1774  isAllowedToSend */\n      0x02\n        /* \"contracts/SmartContractWallet.sol\":1759:1780  isAllowedToSend[_for] */\n      0x00\n        /* \"contracts/SmartContractWallet.sol\":1775:1779  _for */\n      dup5\n        /* \"contracts/SmartContractWallet.sol\":1759:1780  isAllowedToSend[_for] */\n      0xffffffffffffffffffffffffffffffffffffffff\n      and\n      0xffffffffffffffffffffffffffffffffffffffff\n      and\n      dup2\n      mstore\n      0x20\n      add\n      swap1\n      dup2\n      mstore\n      0x20\n      add\n      0x00\n      keccak256\n      0x00\n        /* \"contracts/SmartContractWallet.sol\":1759:1787  isAllowedToSend[_for] = true */\n      0x0100\n      exp\n      dup2\n      sload\n      dup2\n      0xff\n      mul\n      not\n      and\n      swap1\n      dup4\n      iszero\n      iszero\n      mul\n      or\n      swap1\n      sstore\n      pop\n        /* \"contracts/SmartContractWallet.sol\":1728:1861  if(_amount > 0) {... */\n      jump(tag_72)\n    tag_71:\n        /* \"contracts/SmartContractWallet.sol\":1844:1849  false */\n      0x00\n        /* \"contracts/SmartContractWallet.sol\":1820:1835  isAllowedToSend */\n      0x02\n        /* \"contracts/SmartContractWallet.sol\":1820:1841  isAllowedToSend[_for] */\n      0x00\n        /* \"contracts/SmartContractWallet.sol\":1836:1840  _for */\n      dup5\n        /* \"contracts/SmartContractWallet.sol\":1820:1841  isAllowedToSend[_for] */\n      0xffffffffffffffffffffffffffffffffffffffff\n      and\n      0xffffffffffffffffffffffffffffffffffffffff\n      and\n      dup2\n      mstore\n      0x20\n      add\n      swap1\n      dup2\n      mstore\n      0x20\n      add\n      0x00\n      keccak256\n      0x00\n        /* \"contracts/SmartContractWallet.sol\":1820:1849  isAllowedToSend[_for] = false */\n      0x0100\n      exp\n      dup2\n      sload\n      dup2\n      0xff\n      mul\n      not\n      and\n      swap1\n      dup4\n      iszero\n      iszero\n      mul\n      or\n      swap1\n      sstore\n      pop\n        /* \"contracts/SmartContractWallet.sol\":1728:1861  if(_amount > 0) {... */\n    tag_72:\n        /* \"contracts/SmartContractWallet.sol\":1548:1868  function setAllowance(address _for, uint _amount) public {... */\n      pop\n      pop\n      jump\t// out\n        /* \"contracts/SmartContractWallet.sol\":309:350  mapping(address => uint) public allowance */\n    tag_40:\n      mstore(0x20, 0x01)\n      dup1\n      0x00\n      mstore\n      keccak256(0x00, 0x40)\n      0x00\n      swap2\n      pop\n      swap1\n      pop\n      sload\n      dup2\n      jump\t// out\n        /* \"contracts/SmartContractWallet.sol\":602:661  uint public constant confirmationsFromGuardiansForReset = 3 */\n    tag_45:\n        /* \"contracts/SmartContractWallet.sol\":660:661  3 */\n      0x03\n        /* \"contracts/SmartContractWallet.sol\":602:661  uint public constant confirmationsFromGuardiansForReset = 3 */\n      dup2\n      jump\t// out\n        /* \"contracts/SmartContractWallet.sol\":272:300  address payable public owner */\n    tag_49:\n      0x00\n      dup1\n      sload\n      swap1\n      0x0100\n      exp\n      swap1\n      div\n      0xffffffffffffffffffffffffffffffffffffffff\n      and\n      dup2\n      jump\t// out\n        /* \"contracts/SmartContractWallet.sol\":939:1540  function proposeNewOwner(address payable _newOwner) public {... */\n    tag_56:\n        /* \"contracts/SmartContractWallet.sol\":1017:1026  guardians */\n      0x03\n        /* \"contracts/SmartContractWallet.sol\":1017:1038  guardians[msg.sender] */\n      0x00\n        /* \"contracts/SmartContractWallet.sol\":1027:1037  msg.sender */\n      caller\n        /* \"contracts/SmartContractWallet.sol\":1017:1038  guardians[msg.sender] */\n      0xffffffffffffffffffffffffffffffffffffffff\n      and\n      0xffffffffffffffffffffffffffffffffffffffff\n      and\n      dup2\n      mstore\n      0x20\n      add\n      swap1\n      dup2\n      mstore\n      0x20\n      add\n      0x00\n      keccak256\n      0x00\n      swap1\n      sload\n      swap1\n      0x0100\n      exp\n      swap1\n      div\n      0xff\n      and\n        /* \"contracts/SmartContractWallet.sol\":1009:1090  require(guardians[msg.sender], \"You are not a guardian of this wallet, aborting\") */\n      tag_74\n      jumpi\n      mload(0x40)\n      0x08c379a000000000000000000000000000000000000000000000000000000000\n      dup2\n      mstore\n      0x04\n      add\n      tag_75\n      swap1\n      tag_76\n      jump\t// in\n    tag_75:\n      mload(0x40)\n      dup1\n      swap2\n      sub\n      swap1\n      revert\n    tag_74:\n        /* \"contracts/SmartContractWallet.sol\":1162:1167  false */\n      0x00\n        /* \"contracts/SmartContractWallet.sol\":1109:1167  nextOwnerGuardianVotedBool[_newOwner][msg.sender] == false */\n      iszero\n      iszero\n        /* \"contracts/SmartContractWallet.sol\":1109:1135  nextOwnerGuardianVotedBool */\n      0x05\n        /* \"contracts/SmartContractWallet.sol\":1109:1146  nextOwnerGuardianVotedBool[_newOwner] */\n      0x00\n        /* \"contracts/SmartContractWallet.sol\":1136:1145  _newOwner */\n      dup4\n        /* \"contracts/SmartContractWallet.sol\":1109:1146  nextOwnerGuardianVotedBool[_newOwner] */\n      0xffffffffffffffffffffffffffffffffffffffff\n      and\n      0xffffffffffffffffffffffffffffffffffffffff\n      and\n      dup2\n      mstore\n      0x20\n      add\n      swap1\n      dup2\n      mstore\n      0x20\n      add\n      0x00\n      keccak256\n        /* \"contracts/SmartContractWallet.sol\":1109:1158  nextOwnerGuardianVotedBool[_newOwner][msg.sender] */\n      0x00\n        /* \"contracts/SmartContractWallet.sol\":1147:1157  msg.sender */\n      caller\n        /* \"contracts/SmartContractWallet.sol\":1109:1158  nextOwnerGuardianVotedBool[_newOwner][msg.sender] */\n      0xffffffffffffffffffffffffffffffffffffffff\n      and\n      0xffffffffffffffffffffffffffffffffffffffff\n      and\n      dup2\n      mstore\n      0x20\n      add\n      swap1\n      dup2\n      mstore\n      0x20\n      add\n      0x00\n      keccak256\n      0x00\n      swap1\n      sload\n      swap1\n      0x0100\n      exp\n      swap1\n      div\n      0xff\n      and\n        /* \"contracts/SmartContractWallet.sol\":1109:1167  nextOwnerGuardianVotedBool[_newOwner][msg.sender] == false */\n      iszero\n      iszero\n      eq\n        /* \"contracts/SmartContractWallet.sol\":1101:1204  require(nextOwnerGuardianVotedBool[_newOwner][msg.sender] == false, \"You have already voted, aborting\") */\n      tag_77\n      jumpi\n      mload(0x40)\n      0x08c379a000000000000000000000000000000000000000000000000000000000\n      dup2\n      mstore\n      0x04\n      add\n      tag_78\n      swap1\n      tag_79\n      jump\t// in\n    tag_78:\n      mload(0x40)\n      dup1\n      swap2\n      sub\n      swap1\n      revert\n    tag_77:\n        /* \"contracts/SmartContractWallet.sol\":1231:1240  nextOwner */\n      0x04\n      0x00\n      swap1\n      sload\n      swap1\n      0x0100\n      exp\n      swap1\n      div\n      0xffffffffffffffffffffffffffffffffffffffff\n      and\n        /* \"contracts/SmartContractWallet.sol\":1218:1240  _newOwner != nextOwner */\n      0xffffffffffffffffffffffffffffffffffffffff\n      and\n        /* \"contracts/SmartContractWallet.sol\":1218:1227  _newOwner */\n      dup2\n        /* \"contracts/SmartContractWallet.sol\":1218:1240  _newOwner != nextOwner */\n      0xffffffffffffffffffffffffffffffffffffffff\n      and\n      eq\n        /* \"contracts/SmartContractWallet.sol\":1215:1327  if(_newOwner != nextOwner){... */\n      tag_80\n      jumpi\n        /* \"contracts/SmartContractWallet.sol\":1268:1277  _newOwner */\n      dup1\n        /* \"contracts/SmartContractWallet.sol\":1256:1265  nextOwner */\n      0x04\n      0x00\n        /* \"contracts/SmartContractWallet.sol\":1256:1277  nextOwner = _newOwner */\n      0x0100\n      exp\n      dup2\n      sload\n      dup2\n      0xffffffffffffffffffffffffffffffffffffffff\n      mul\n      not\n      and\n      swap1\n      dup4\n      0xffffffffffffffffffffffffffffffffffffffff\n      and\n      mul\n      or\n      swap1\n      sstore\n      pop\n        /* \"contracts/SmartContractWallet.sol\":1314:1315  0 */\n      0x00\n        /* \"contracts/SmartContractWallet.sol\":1292:1311  guardiansResetCount */\n      0x06\n        /* \"contracts/SmartContractWallet.sol\":1292:1315  guardiansResetCount = 0 */\n      dup2\n      swap1\n      sstore\n      pop\n        /* \"contracts/SmartContractWallet.sol\":1215:1327  if(_newOwner != nextOwner){... */\n    tag_80:\n        /* \"contracts/SmartContractWallet.sol\":1339:1358  guardiansResetCount */\n      0x06\n      0x00\n        /* \"contracts/SmartContractWallet.sol\":1339:1360  guardiansResetCount++ */\n      dup2\n      sload\n      dup1\n      swap3\n      swap2\n      swap1\n      tag_81\n      swap1\n      tag_82\n      jump\t// in\n    tag_81:\n      swap2\n      swap1\n      pop\n      sstore\n      pop\n        /* \"contracts/SmartContractWallet.sol\":660:661  3 */\n      0x03\n        /* \"contracts/SmartContractWallet.sol\":1374:1393  guardiansResetCount */\n      sload(0x06)\n        /* \"contracts/SmartContractWallet.sol\":1374:1431  guardiansResetCount >= confirmationsFromGuardiansForReset */\n      lt\n        /* \"contracts/SmartContractWallet.sol\":1371:1523  if(guardiansResetCount >= confirmationsFromGuardiansForReset) {... */\n      tag_83\n      jumpi\n        /* \"contracts/SmartContractWallet.sol\":1456:1465  nextOwner */\n      0x04\n      0x00\n      swap1\n      sload\n      swap1\n      0x0100\n      exp\n      swap1\n      div\n      0xffffffffffffffffffffffffffffffffffffffff\n      and\n        /* \"contracts/SmartContractWallet.sol\":1448:1453  owner */\n      0x00\n      dup1\n        /* \"contracts/SmartContractWallet.sol\":1448:1465  owner = nextOwner */\n      0x0100\n      exp\n      dup2\n      sload\n      dup2\n      0xffffffffffffffffffffffffffffffffffffffff\n      mul\n      not\n      and\n      swap1\n      dup4\n      0xffffffffffffffffffffffffffffffffffffffff\n      and\n      mul\n      or\n      swap1\n      sstore\n      pop\n        /* \"contracts/SmartContractWallet.sol\":1508:1509  0 */\n      0x00\n        /* \"contracts/SmartContractWallet.sol\":1480:1489  nextOwner */\n      0x04\n      0x00\n        /* \"contracts/SmartContractWallet.sol\":1480:1511  nextOwner = payable(address(0)) */\n      0x0100\n      exp\n      dup2\n      sload\n      dup2\n      0xffffffffffffffffffffffffffffffffffffffff\n      mul\n      not\n      and\n      swap1\n      dup4\n      0xffffffffffffffffffffffffffffffffffffffff\n      and\n      mul\n      or\n      swap1\n      sstore\n      pop\n        /* \"contracts/SmartContractWallet.sol\":1371:1523  if(guardiansResetCount >= confirmationsFromGuardiansForReset) {... */\n    tag_83:\n        /* \"contracts/SmartContractWallet.sol\":939:1540  function proposeNewOwner(address payable _newOwner) public {... */\n      pop\n      jump\t// out\n        /* \"contracts/SmartContractWallet.sol\":1876:2587  function transfer(address payable _to, uint _amount, bytes memory _payload) public returns(bytes memory) {... */\n    tag_61:\n        /* \"contracts/SmartContractWallet.sol\":1967:1979  bytes memory */\n      0x60\n        /* \"contracts/SmartContractWallet.sol\":2085:2090  owner */\n      0x00\n      dup1\n      sload\n      swap1\n      0x0100\n      exp\n      swap1\n      div\n      0xffffffffffffffffffffffffffffffffffffffff\n      and\n        /* \"contracts/SmartContractWallet.sol\":2071:2090  msg.sender != owner */\n      0xffffffffffffffffffffffffffffffffffffffff\n      and\n        /* \"contracts/SmartContractWallet.sol\":2071:2081  msg.sender */\n      caller\n        /* \"contracts/SmartContractWallet.sol\":2071:2090  msg.sender != owner */\n      0xffffffffffffffffffffffffffffffffffffffff\n      and\n      eq\n        /* \"contracts/SmartContractWallet.sol\":2068:2399  if(msg.sender != owner){... */\n      tag_85\n      jumpi\n        /* \"contracts/SmartContractWallet.sol\":2139:2146  _amount */\n      dup3\n        /* \"contracts/SmartContractWallet.sol\":2114:2123  allowance */\n      0x01\n        /* \"contracts/SmartContractWallet.sol\":2114:2135  allowance[msg.sender] */\n      0x00\n        /* \"contracts/SmartContractWallet.sol\":2124:2134  msg.sender */\n      caller\n        /* \"contracts/SmartContractWallet.sol\":2114:2135  allowance[msg.sender] */\n      0xffffffffffffffffffffffffffffffffffffffff\n      and\n      0xffffffffffffffffffffffffffffffffffffffff\n      and\n      dup2\n      mstore\n      0x20\n      add\n      swap1\n      dup2\n      mstore\n      0x20\n      add\n      0x00\n      keccak256\n      sload\n        /* \"contracts/SmartContractWallet.sol\":2114:2146  allowance[msg.sender] >= _amount */\n      lt\n      iszero\n        /* \"contracts/SmartContractWallet.sol\":2106:2212  require(allowance[msg.sender] >= _amount, \"You are trying to send more than you are allowed to, aborting\") */\n      tag_86\n      jumpi\n      mload(0x40)\n      0x08c379a000000000000000000000000000000000000000000000000000000000\n      dup2\n      mstore\n      0x04\n      add\n      tag_87\n      swap1\n      tag_88\n      jump\t// in\n    tag_87:\n      mload(0x40)\n      dup1\n      swap2\n      sub\n      swap1\n      revert\n    tag_86:\n        /* \"contracts/SmartContractWallet.sol\":2235:2250  isAllowedToSend */\n      0x02\n        /* \"contracts/SmartContractWallet.sol\":2235:2262  isAllowedToSend[msg.sender] */\n      0x00\n        /* \"contracts/SmartContractWallet.sol\":2251:2261  msg.sender */\n      caller\n        /* \"contracts/SmartContractWallet.sol\":2235:2262  isAllowedToSend[msg.sender] */\n      0xffffffffffffffffffffffffffffffffffffffff\n      and\n      0xffffffffffffffffffffffffffffffffffffffff\n      and\n      dup2\n      mstore\n      0x20\n      add\n      swap1\n      dup2\n      mstore\n      0x20\n      add\n      0x00\n      keccak256\n      0x00\n      swap1\n      sload\n      swap1\n      0x0100\n      exp\n      swap1\n      div\n      0xff\n      and\n        /* \"contracts/SmartContractWallet.sol\":2227:2338  require(isAllowedToSend[msg.sender], \"You are not allowed to send anything from this smart contract, aborting\") */\n      tag_89\n      jumpi\n      mload(0x40)\n      0x08c379a000000000000000000000000000000000000000000000000000000000\n      dup2\n      mstore\n      0x04\n      add\n      tag_90\n      swap1\n      tag_91\n      jump\t// in\n    tag_90:\n      mload(0x40)\n      dup1\n      swap2\n      sub\n      swap1\n      revert\n    tag_89:\n        /* \"contracts/SmartContractWallet.sol\":2380:2387  _amount */\n      dup3\n        /* \"contracts/SmartContractWallet.sol\":2355:2364  allowance */\n      0x01\n        /* \"contracts/SmartContractWallet.sol\":2355:2376  allowance[msg.sender] */\n      0x00\n        /* \"contracts/SmartContractWallet.sol\":2365:2375  msg.sender */\n      caller\n        /* \"contracts/SmartContractWallet.sol\":2355:2376  allowance[msg.sender] */\n      0xffffffffffffffffffffffffffffffffffffffff\n      and\n      0xffffffffffffffffffffffffffffffffffffffff\n      and\n      dup2\n      mstore\n      0x20\n      add\n      swap1\n      dup2\n      mstore\n      0x20\n      add\n      0x00\n      keccak256\n      0x00\n        /* \"contracts/SmartContractWallet.sol\":2355:2387  allowance[msg.sender] -= _amount */\n      dup3\n      dup3\n      sload\n      tag_92\n      swap2\n      swap1\n      tag_93\n      jump\t// in\n    tag_92:\n      swap3\n      pop\n      pop\n      dup2\n      swap1\n      sstore\n      pop\n        /* \"contracts/SmartContractWallet.sol\":2068:2399  if(msg.sender != owner){... */\n    tag_85:\n        /* \"contracts/SmartContractWallet.sol\":2412:2424  bool success */\n      0x00\n        /* \"contracts/SmartContractWallet.sol\":2426:2449  bytes memory returnData */\n      dup1\n        /* \"contracts/SmartContractWallet.sol\":2453:2456  _to */\n      dup6\n        /* \"contracts/SmartContractWallet.sol\":2453:2461  _to.call */\n      0xffffffffffffffffffffffffffffffffffffffff\n      and\n        /* \"contracts/SmartContractWallet.sol\":2469:2476  _amount */\n      dup6\n        /* \"contracts/SmartContractWallet.sol\":2478:2486  _payload */\n      dup6\n        /* \"contracts/SmartContractWallet.sol\":2453:2487  _to.call{value: _amount}(_payload) */\n      mload(0x40)\n      tag_94\n      swap2\n      swap1\n      tag_95\n      jump\t// in\n    tag_94:\n      0x00\n      mload(0x40)\n      dup1\n      dup4\n      sub\n      dup2\n      dup6\n      dup8\n      gas\n      call\n      swap3\n      pop\n      pop\n      pop\n      returndatasize\n      dup1\n      0x00\n      dup2\n      eq\n      tag_98\n      jumpi\n      mload(0x40)\n      swap2\n      pop\n      and(add(returndatasize, 0x3f), not(0x1f))\n      dup3\n      add\n      0x40\n      mstore\n      returndatasize\n      dup3\n      mstore\n      returndatasize\n      0x00\n      0x20\n      dup5\n      add\n      returndatacopy\n      jump(tag_97)\n    tag_98:\n      0x60\n      swap2\n      pop\n    tag_97:\n      pop\n        /* \"contracts/SmartContractWallet.sol\":2411:2487  (bool success, bytes memory returnData) = _to.call{value: _amount}(_payload) */\n      swap2\n      pop\n      swap2\n      pop\n        /* \"contracts/SmartContractWallet.sol\":2506:2513  success */\n      dup2\n        /* \"contracts/SmartContractWallet.sol\":2498:2551  require(success, \"Aborting, call was not successful\") */\n      tag_99\n      jumpi\n      mload(0x40)\n      0x08c379a000000000000000000000000000000000000000000000000000000000\n      dup2\n      mstore\n      0x04\n      add\n      tag_100\n      swap1\n      tag_101\n      jump\t// in\n    tag_100:\n      mload(0x40)\n      dup1\n      swap2\n      sub\n      swap1\n      revert\n    tag_99:\n        /* \"contracts/SmartContractWallet.sol\":2569:2579  returnData */\n      dup1\n        /* \"contracts/SmartContractWallet.sol\":2562:2579  return returnData */\n      swap3\n      pop\n      pop\n      pop\n        /* \"contracts/SmartContractWallet.sol\":1876:2587  function transfer(address payable _to, uint _amount, bytes memory _payload) public returns(bytes memory) {... */\n      swap4\n      swap3\n      pop\n      pop\n      pop\n      jump\t// out\n        /* \"#utility.yul\":7:82   */\n    tag_102:\n        /* \"#utility.yul\":40:46   */\n      0x00\n        /* \"#utility.yul\":73:75   */\n      0x40\n        /* \"#utility.yul\":67:76   */\n      mload\n        /* \"#utility.yul\":57:76   */\n      swap1\n      pop\n        /* \"#utility.yul\":7:82   */\n      swap1\n      jump\t// out\n        /* \"#utility.yul\":88:205   */\n    tag_103:\n        /* \"#utility.yul\":197:198   */\n      0x00\n        /* \"#utility.yul\":194:195   */\n      dup1\n        /* \"#utility.yul\":187:199   */\n      revert\n        /* \"#utility.yul\":211:328   */\n    tag_104:\n        /* \"#utility.yul\":320:321   */\n      0x00\n        /* \"#utility.yul\":317:318   */\n      dup1\n        /* \"#utility.yul\":310:322   */\n      revert\n        /* \"#utility.yul\":334:460   */\n    tag_105:\n        /* \"#utility.yul\":371:378   */\n      0x00\n        /* \"#utility.yul\":411:453   */\n      0xffffffffffffffffffffffffffffffffffffffff\n        /* \"#utility.yul\":404:409   */\n      dup3\n        /* \"#utility.yul\":400:454   */\n      and\n        /* \"#utility.yul\":389:454   */\n      swap1\n      pop\n        /* \"#utility.yul\":334:460   */\n      swap2\n      swap1\n      pop\n      jump\t// out\n        /* \"#utility.yul\":466:562   */\n    tag_106:\n        /* \"#utility.yul\":503:510   */\n      0x00\n        /* \"#utility.yul\":532:556   */\n      tag_157\n        /* \"#utility.yul\":550:555   */\n      dup3\n        /* \"#utility.yul\":532:556   */\n      tag_105\n      jump\t// in\n    tag_157:\n        /* \"#utility.yul\":521:556   */\n      swap1\n      pop\n        /* \"#utility.yul\":466:562   */\n      swap2\n      swap1\n      pop\n      jump\t// out\n        /* \"#utility.yul\":568:690   */\n    tag_107:\n        /* \"#utility.yul\":641:665   */\n      tag_159\n        /* \"#utility.yul\":659:664   */\n      dup2\n        /* \"#utility.yul\":641:665   */\n      tag_106\n      jump\t// in\n    tag_159:\n        /* \"#utility.yul\":634:639   */\n      dup2\n        /* \"#utility.yul\":631:666   */\n      eq\n        /* \"#utility.yul\":621:684   */\n      tag_160\n      jumpi\n        /* \"#utility.yul\":680:681   */\n      0x00\n        /* \"#utility.yul\":677:678   */\n      dup1\n        /* \"#utility.yul\":670:682   */\n      revert\n        /* \"#utility.yul\":621:684   */\n    tag_160:\n        /* \"#utility.yul\":568:690   */\n      pop\n      jump\t// out\n        /* \"#utility.yul\":696:835   */\n    tag_108:\n        /* \"#utility.yul\":742:747   */\n      0x00\n        /* \"#utility.yul\":780:786   */\n      dup2\n        /* \"#utility.yul\":767:787   */\n      calldataload\n        /* \"#utility.yul\":758:787   */\n      swap1\n      pop\n        /* \"#utility.yul\":796:829   */\n      tag_162\n        /* \"#utility.yul\":823:828   */\n      dup2\n        /* \"#utility.yul\":796:829   */\n      tag_107\n      jump\t// in\n    tag_162:\n        /* \"#utility.yul\":696:835   */\n      swap3\n      swap2\n      pop\n      pop\n      jump\t// out\n        /* \"#utility.yul\":841:1170   */\n    tag_18:\n        /* \"#utility.yul\":900:906   */\n      0x00\n        /* \"#utility.yul\":949:951   */\n      0x20\n        /* \"#utility.yul\":937:946   */\n      dup3\n        /* \"#utility.yul\":928:935   */\n      dup5\n        /* \"#utility.yul\":924:947   */\n      sub\n        /* \"#utility.yul\":920:952   */\n      slt\n        /* \"#utility.yul\":917:1036   */\n      iszero\n      tag_164\n      jumpi\n        /* \"#utility.yul\":955:1034   */\n      tag_165\n      tag_103\n      jump\t// in\n    tag_165:\n        /* \"#utility.yul\":917:1036   */\n    tag_164:\n        /* \"#utility.yul\":1075:1076   */\n      0x00\n        /* \"#utility.yul\":1100:1153   */\n      tag_166\n        /* \"#utility.yul\":1145:1152   */\n      dup5\n        /* \"#utility.yul\":1136:1142   */\n      dup3\n        /* \"#utility.yul\":1125:1134   */\n      dup6\n        /* \"#utility.yul\":1121:1143   */\n      add\n        /* \"#utility.yul\":1100:1153   */\n      tag_108\n      jump\t// in\n    tag_166:\n        /* \"#utility.yul\":1090:1153   */\n      swap2\n      pop\n        /* \"#utility.yul\":1046:1163   */\n      pop\n        /* \"#utility.yul\":841:1170   */\n      swap3\n      swap2\n      pop\n      pop\n      jump\t// out\n        /* \"#utility.yul\":1176:1266   */\n    tag_109:\n        /* \"#utility.yul\":1210:1217   */\n      0x00\n        /* \"#utility.yul\":1253:1258   */\n      dup2\n        /* \"#utility.yul\":1246:1259   */\n      iszero\n        /* \"#utility.yul\":1239:1260   */\n      iszero\n        /* \"#utility.yul\":1228:1260   */\n      swap1\n      pop\n        /* \"#utility.yul\":1176:1266   */\n      swap2\n      swap1\n      pop\n      jump\t// out\n        /* \"#utility.yul\":1272:1381   */\n    tag_110:\n        /* \"#utility.yul\":1353:1374   */\n      tag_169\n        /* \"#utility.yul\":1368:1373   */\n      dup2\n        /* \"#utility.yul\":1353:1374   */\n      tag_109\n      jump\t// in\n    tag_169:\n        /* \"#utility.yul\":1348:1351   */\n      dup3\n        /* \"#utility.yul\":1341:1375   */\n      mstore\n        /* \"#utility.yul\":1272:1381   */\n      pop\n      pop\n      jump\t// out\n        /* \"#utility.yul\":1387:1597   */\n    tag_21:\n        /* \"#utility.yul\":1474:1478   */\n      0x00\n        /* \"#utility.yul\":1512:1514   */\n      0x20\n        /* \"#utility.yul\":1501:1510   */\n      dup3\n        /* \"#utility.yul\":1497:1515   */\n      add\n        /* \"#utility.yul\":1489:1515   */\n      swap1\n      pop\n        /* \"#utility.yul\":1525:1590   */\n      tag_171\n        /* \"#utility.yul\":1587:1588   */\n      0x00\n        /* \"#utility.yul\":1576:1585   */\n      dup4\n        /* \"#utility.yul\":1572:1589   */\n      add\n        /* \"#utility.yul\":1563:1569   */\n      dup5\n        /* \"#utility.yul\":1525:1590   */\n      tag_110\n      jump\t// in\n    tag_171:\n        /* \"#utility.yul\":1387:1597   */\n      swap3\n      swap2\n      pop\n      pop\n      jump\t// out\n        /* \"#utility.yul\":1603:1719   */\n    tag_111:\n        /* \"#utility.yul\":1673:1694   */\n      tag_173\n        /* \"#utility.yul\":1688:1693   */\n      dup2\n        /* \"#utility.yul\":1673:1694   */\n      tag_109\n      jump\t// in\n    tag_173:\n        /* \"#utility.yul\":1666:1671   */\n      dup2\n        /* \"#utility.yul\":1663:1695   */\n      eq\n        /* \"#utility.yul\":1653:1713   */\n      tag_174\n      jumpi\n        /* \"#utility.yul\":1709:1710   */\n      0x00\n        /* \"#utility.yul\":1706:1707   */\n      dup1\n        /* \"#utility.yul\":1699:1711   */\n      revert\n        /* \"#utility.yul\":1653:1713   */\n    tag_174:\n        /* \"#utility.yul\":1603:1719   */\n      pop\n      jump\t// out\n        /* \"#utility.yul\":1725:1858   */\n    tag_112:\n        /* \"#utility.yul\":1768:1773   */\n      0x00\n        /* \"#utility.yul\":1806:1812   */\n      dup2\n        /* \"#utility.yul\":1793:1813   */\n      calldataload\n        /* \"#utility.yul\":1784:1813   */\n      swap1\n      pop\n        /* \"#utility.yul\":1822:1852   */\n      tag_176\n        /* \"#utility.yul\":1846:1851   */\n      dup2\n        /* \"#utility.yul\":1822:1852   */\n      tag_111\n      jump\t// in\n    tag_176:\n        /* \"#utility.yul\":1725:1858   */\n      swap3\n      swap2\n      pop\n      pop\n      jump\t// out\n        /* \"#utility.yul\":1864:2332   */\n    tag_30:\n        /* \"#utility.yul\":1929:1935   */\n      0x00\n        /* \"#utility.yul\":1937:1943   */\n      dup1\n        /* \"#utility.yul\":1986:1988   */\n      0x40\n        /* \"#utility.yul\":1974:1983   */\n      dup4\n        /* \"#utility.yul\":1965:1972   */\n      dup6\n        /* \"#utility.yul\":1961:1984   */\n      sub\n        /* \"#utility.yul\":1957:1989   */\n      slt\n        /* \"#utility.yul\":1954:2073   */\n      iszero\n      tag_178\n      jumpi\n        /* \"#utility.yul\":1992:2071   */\n      tag_179\n      tag_103\n      jump\t// in\n    tag_179:\n        /* \"#utility.yul\":1954:2073   */\n    tag_178:\n        /* \"#utility.yul\":2112:2113   */\n      0x00\n        /* \"#utility.yul\":2137:2190   */\n      tag_180\n        /* \"#utility.yul\":2182:2189   */\n      dup6\n        /* \"#utility.yul\":2173:2179   */\n      dup3\n        /* \"#utility.yul\":2162:2171   */\n      dup7\n        /* \"#utility.yul\":2158:2180   */\n      add\n        /* \"#utility.yul\":2137:2190   */\n      tag_108\n      jump\t// in\n    tag_180:\n        /* \"#utility.yul\":2127:2190   */\n      swap3\n      pop\n        /* \"#utility.yul\":2083:2200   */\n      pop\n        /* \"#utility.yul\":2239:2241   */\n      0x20\n        /* \"#utility.yul\":2265:2315   */\n      tag_181\n        /* \"#utility.yul\":2307:2314   */\n      dup6\n        /* \"#utility.yul\":2298:2304   */\n      dup3\n        /* \"#utility.yul\":2287:2296   */\n      dup7\n        /* \"#utility.yul\":2283:2305   */\n      add\n        /* \"#utility.yul\":2265:2315   */\n      tag_112\n      jump\t// in\n    tag_181:\n        /* \"#utility.yul\":2255:2315   */\n      swap2\n      pop\n        /* \"#utility.yul\":2210:2325   */\n      pop\n        /* \"#utility.yul\":1864:2332   */\n      swap3\n      pop\n      swap3\n      swap1\n      pop\n      jump\t// out\n        /* \"#utility.yul\":2338:2415   */\n    tag_113:\n        /* \"#utility.yul\":2375:2382   */\n      0x00\n        /* \"#utility.yul\":2404:2409   */\n      dup2\n        /* \"#utility.yul\":2393:2409   */\n      swap1\n      pop\n        /* \"#utility.yul\":2338:2415   */\n      swap2\n      swap1\n      pop\n      jump\t// out\n        /* \"#utility.yul\":2421:2543   */\n    tag_114:\n        /* \"#utility.yul\":2494:2518   */\n      tag_184\n        /* \"#utility.yul\":2512:2517   */\n      dup2\n        /* \"#utility.yul\":2494:2518   */\n      tag_113\n      jump\t// in\n    tag_184:\n        /* \"#utility.yul\":2487:2492   */\n      dup2\n        /* \"#utility.yul\":2484:2519   */\n      eq\n        /* \"#utility.yul\":2474:2537   */\n      tag_185\n      jumpi\n        /* \"#utility.yul\":2533:2534   */\n      0x00\n        /* \"#utility.yul\":2530:2531   */\n      dup1\n        /* \"#utility.yul\":2523:2535   */\n      revert\n        /* \"#utility.yul\":2474:2537   */\n    tag_185:\n        /* \"#utility.yul\":2421:2543   */\n      pop\n      jump\t// out\n        /* \"#utility.yul\":2549:2688   */\n    tag_115:\n        /* \"#utility.yul\":2595:2600   */\n      0x00\n        /* \"#utility.yul\":2633:2639   */\n      dup2\n        /* \"#utility.yul\":2620:2640   */\n      calldataload\n        /* \"#utility.yul\":2611:2640   */\n      swap1\n      pop\n        /* \"#utility.yul\":2649:2682   */\n      tag_187\n        /* \"#utility.yul\":2676:2681   */\n      dup2\n        /* \"#utility.yul\":2649:2682   */\n      tag_114\n      jump\t// in\n    tag_187:\n        /* \"#utility.yul\":2549:2688   */\n      swap3\n      swap2\n      pop\n      pop\n      jump\t// out\n        /* \"#utility.yul\":2694:3168   */\n    tag_35:\n        /* \"#utility.yul\":2762:2768   */\n      0x00\n        /* \"#utility.yul\":2770:2776   */\n      dup1\n        /* \"#utility.yul\":2819:2821   */\n      0x40\n        /* \"#utility.yul\":2807:2816   */\n      dup4\n        /* \"#utility.yul\":2798:2805   */\n      dup6\n        /* \"#utility.yul\":2794:2817   */\n      sub\n        /* \"#utility.yul\":2790:2822   */\n      slt\n        /* \"#utility.yul\":2787:2906   */\n      iszero\n      tag_189\n      jumpi\n        /* \"#utility.yul\":2825:2904   */\n      tag_190\n      tag_103\n      jump\t// in\n    tag_190:\n        /* \"#utility.yul\":2787:2906   */\n    tag_189:\n        /* \"#utility.yul\":2945:2946   */\n      0x00\n        /* \"#utility.yul\":2970:3023   */\n      tag_191\n        /* \"#utility.yul\":3015:3022   */\n      dup6\n        /* \"#utility.yul\":3006:3012   */\n      dup3\n        /* \"#utility.yul\":2995:3004   */\n      dup7\n        /* \"#utility.yul\":2991:3013   */\n      add\n        /* \"#utility.yul\":2970:3023   */\n      tag_108\n      jump\t// in\n    tag_191:\n        /* \"#utility.yul\":2960:3023   */\n      swap3\n      pop\n        /* \"#utility.yul\":2916:3033   */\n      pop\n        /* \"#utility.yul\":3072:3074   */\n      0x20\n        /* \"#utility.yul\":3098:3151   */\n      tag_192\n        /* \"#utility.yul\":3143:3150   */\n      dup6\n        /* \"#utility.yul\":3134:3140   */\n      dup3\n        /* \"#utility.yul\":3123:3132   */\n      dup7\n        /* \"#utility.yul\":3119:3141   */\n      add\n        /* \"#utility.yul\":3098:3151   */\n      tag_115\n      jump\t// in\n    tag_192:\n        /* \"#utility.yul\":3088:3151   */\n      swap2\n      pop\n        /* \"#utility.yul\":3043:3161   */\n      pop\n        /* \"#utility.yul\":2694:3168   */\n      swap3\n      pop\n      swap3\n      swap1\n      pop\n      jump\t// out\n        /* \"#utility.yul\":3174:3292   */\n    tag_116:\n        /* \"#utility.yul\":3261:3285   */\n      tag_194\n        /* \"#utility.yul\":3279:3284   */\n      dup2\n        /* \"#utility.yul\":3261:3285   */\n      tag_113\n      jump\t// in\n    tag_194:\n        /* \"#utility.yul\":3256:3259   */\n      dup3\n        /* \"#utility.yul\":3249:3286   */\n      mstore\n        /* \"#utility.yul\":3174:3292   */\n      pop\n      pop\n      jump\t// out\n        /* \"#utility.yul\":3298:3520   */\n    tag_42:\n        /* \"#utility.yul\":3391:3395   */\n      0x00\n        /* \"#utility.yul\":3429:3431   */\n      0x20\n        /* \"#utility.yul\":3418:3427   */\n      dup3\n        /* \"#utility.yul\":3414:3432   */\n      add\n        /* \"#utility.yul\":3406:3432   */\n      swap1\n      pop\n        /* \"#utility.yul\":3442:3513   */\n      tag_196\n        /* \"#utility.yul\":3510:3511   */\n      0x00\n        /* \"#utility.yul\":3499:3508   */\n      dup4\n        /* \"#utility.yul\":3495:3512   */\n      add\n        /* \"#utility.yul\":3486:3492   */\n      dup5\n        /* \"#utility.yul\":3442:3513   */\n      tag_116\n      jump\t// in\n    tag_196:\n        /* \"#utility.yul\":3298:3520   */\n      swap3\n      swap2\n      pop\n      pop\n      jump\t// out\n        /* \"#utility.yul\":3526:3630   */\n    tag_117:\n        /* \"#utility.yul\":3571:3578   */\n      0x00\n        /* \"#utility.yul\":3600:3624   */\n      tag_198\n        /* \"#utility.yul\":3618:3623   */\n      dup3\n        /* \"#utility.yul\":3600:3624   */\n      tag_105\n      jump\t// in\n    tag_198:\n        /* \"#utility.yul\":3589:3624   */\n      swap1\n      pop\n        /* \"#utility.yul\":3526:3630   */\n      swap2\n      swap1\n      pop\n      jump\t// out\n        /* \"#utility.yul\":3636:3778   */\n    tag_118:\n        /* \"#utility.yul\":3739:3771   */\n      tag_200\n        /* \"#utility.yul\":3765:3770   */\n      dup2\n        /* \"#utility.yul\":3739:3771   */\n      tag_117\n      jump\t// in\n    tag_200:\n        /* \"#utility.yul\":3734:3737   */\n      dup3\n        /* \"#utility.yul\":3727:3772   */\n      mstore\n        /* \"#utility.yul\":3636:3778   */\n      pop\n      pop\n      jump\t// out\n        /* \"#utility.yul\":3784:4038   */\n    tag_51:\n        /* \"#utility.yul\":3893:3897   */\n      0x00\n        /* \"#utility.yul\":3931:3933   */\n      0x20\n        /* \"#utility.yul\":3920:3929   */\n      dup3\n        /* \"#utility.yul\":3916:3934   */\n      add\n        /* \"#utility.yul\":3908:3934   */\n      swap1\n      pop\n        /* \"#utility.yul\":3944:4031   */\n      tag_202\n        /* \"#utility.yul\":4028:4029   */\n      0x00\n        /* \"#utility.yul\":4017:4026   */\n      dup4\n        /* \"#utility.yul\":4013:4030   */\n      add\n        /* \"#utility.yul\":4004:4010   */\n      dup5\n        /* \"#utility.yul\":3944:4031   */\n      tag_118\n      jump\t// in\n    tag_202:\n        /* \"#utility.yul\":3784:4038   */\n      swap3\n      swap2\n      pop\n      pop\n      jump\t// out\n        /* \"#utility.yul\":4044:4182   */\n    tag_119:\n        /* \"#utility.yul\":4125:4157   */\n      tag_204\n        /* \"#utility.yul\":4151:4156   */\n      dup2\n        /* \"#utility.yul\":4125:4157   */\n      tag_117\n      jump\t// in\n    tag_204:\n        /* \"#utility.yul\":4118:4123   */\n      dup2\n        /* \"#utility.yul\":4115:4158   */\n      eq\n        /* \"#utility.yul\":4105:4176   */\n      tag_205\n      jumpi\n        /* \"#utility.yul\":4172:4173   */\n      0x00\n        /* \"#utility.yul\":4169:4170   */\n      dup1\n        /* \"#utility.yul\":4162:4174   */\n      revert\n        /* \"#utility.yul\":4105:4176   */\n    tag_205:\n        /* \"#utility.yul\":4044:4182   */\n      pop\n      jump\t// out\n        /* \"#utility.yul\":4188:4343   */\n    tag_120:\n        /* \"#utility.yul\":4242:4247   */\n      0x00\n        /* \"#utility.yul\":4280:4286   */\n      dup2\n        /* \"#utility.yul\":4267:4287   */\n      calldataload\n        /* \"#utility.yul\":4258:4287   */\n      swap1\n      pop\n        /* \"#utility.yul\":4296:4337   */\n      tag_207\n        /* \"#utility.yul\":4331:4336   */\n      dup2\n        /* \"#utility.yul\":4296:4337   */\n      tag_119\n      jump\t// in\n    tag_207:\n        /* \"#utility.yul\":4188:4343   */\n      swap3\n      swap2\n      pop\n      pop\n      jump\t// out\n        /* \"#utility.yul\":4349:4694   */\n    tag_55:\n        /* \"#utility.yul\":4416:4422   */\n      0x00\n        /* \"#utility.yul\":4465:4467   */\n      0x20\n        /* \"#utility.yul\":4453:4462   */\n      dup3\n        /* \"#utility.yul\":4444:4451   */\n      dup5\n        /* \"#utility.yul\":4440:4463   */\n      sub\n        /* \"#utility.yul\":4436:4468   */\n      slt\n        /* \"#utility.yul\":4433:4552   */\n      iszero\n      tag_209\n      jumpi\n        /* \"#utility.yul\":4471:4550   */\n      tag_210\n      tag_103\n      jump\t// in\n    tag_210:\n        /* \"#utility.yul\":4433:4552   */\n    tag_209:\n        /* \"#utility.yul\":4591:4592   */\n      0x00\n        /* \"#utility.yul\":4616:4677   */\n      tag_211\n        /* \"#utility.yul\":4669:4676   */\n      dup5\n        /* \"#utility.yul\":4660:4666   */\n      dup3\n        /* \"#utility.yul\":4649:4658   */\n      dup6\n        /* \"#utility.yul\":4645:4667   */\n      add\n        /* \"#utility.yul\":4616:4677   */\n      tag_120\n      jump\t// in\n    tag_211:\n        /* \"#utility.yul\":4606:4677   */\n      swap2\n      pop\n        /* \"#utility.yul\":4562:4687   */\n      pop\n        /* \"#utility.yul\":4349:4694   */\n      swap3\n      swap2\n      pop\n      pop\n      jump\t// out\n        /* \"#utility.yul\":4700:4817   */\n    tag_121:\n        /* \"#utility.yul\":4809:4810   */\n      0x00\n        /* \"#utility.yul\":4806:4807   */\n      dup1\n        /* \"#utility.yul\":4799:4811   */\n      revert\n        /* \"#utility.yul\":4823:4940   */\n    tag_122:\n        /* \"#utility.yul\":4932:4933   */\n      0x00\n        /* \"#utility.yul\":4929:4930   */\n      dup1\n        /* \"#utility.yul\":4922:4934   */\n      revert\n        /* \"#utility.yul\":4946:5048   */\n    tag_123:\n        /* \"#utility.yul\":4987:4993   */\n      0x00\n        /* \"#utility.yul\":5038:5040   */\n      0x1f\n        /* \"#utility.yul\":5034:5041   */\n      not\n        /* \"#utility.yul\":5029:5031   */\n      0x1f\n        /* \"#utility.yul\":5022:5027   */\n      dup4\n        /* \"#utility.yul\":5018:5032   */\n      add\n        /* \"#utility.yul\":5014:5042   */\n      and\n        /* \"#utility.yul\":5004:5042   */\n      swap1\n      pop\n        /* \"#utility.yul\":4946:5048   */\n      swap2\n      swap1\n      pop\n      jump\t// out\n        /* \"#utility.yul\":5054:5234   */\n    tag_124:\n        /* \"#utility.yul\":5102:5179   */\n      0x4e487b7100000000000000000000000000000000000000000000000000000000\n        /* \"#utility.yul\":5099:5100   */\n      0x00\n        /* \"#utility.yul\":5092:5180   */\n      mstore\n        /* \"#utility.yul\":5199:5203   */\n      0x41\n        /* \"#utility.yul\":5196:5197   */\n      0x04\n        /* \"#utility.yul\":5189:5204   */\n      mstore\n        /* \"#utility.yul\":5223:5227   */\n      0x24\n        /* \"#utility.yul\":5220:5221   */\n      0x00\n        /* \"#utility.yul\":5213:5228   */\n      revert\n        /* \"#utility.yul\":5240:5521   */\n    tag_125:\n        /* \"#utility.yul\":5323:5350   */\n      tag_217\n        /* \"#utility.yul\":5345:5349   */\n      dup3\n        /* \"#utility.yul\":5323:5350   */\n      tag_123\n      jump\t// in\n    tag_217:\n        /* \"#utility.yul\":5315:5321   */\n      dup2\n        /* \"#utility.yul\":5311:5351   */\n      add\n        /* \"#utility.yul\":5453:5459   */\n      dup2\n        /* \"#utility.yul\":5441:5451   */\n      dup2\n        /* \"#utility.yul\":5438:5460   */\n      lt\n        /* \"#utility.yul\":5417:5435   */\n      0xffffffffffffffff\n        /* \"#utility.yul\":5405:5415   */\n      dup3\n        /* \"#utility.yul\":5402:5436   */\n      gt\n        /* \"#utility.yul\":5399:5461   */\n      or\n        /* \"#utility.yul\":5396:5484   */\n      iszero\n      tag_218\n      jumpi\n        /* \"#utility.yul\":5464:5482   */\n      tag_219\n      tag_124\n      jump\t// in\n    tag_219:\n        /* \"#utility.yul\":5396:5484   */\n    tag_218:\n        /* \"#utility.yul\":5504:5514   */\n      dup1\n        /* \"#utility.yul\":5500:5502   */\n      0x40\n        /* \"#utility.yul\":5493:5515   */\n      mstore\n        /* \"#utility.yul\":5283:5521   */\n      pop\n        /* \"#utility.yul\":5240:5521   */\n      pop\n      pop\n      jump\t// out\n        /* \"#utility.yul\":5527:5656   */\n    tag_126:\n        /* \"#utility.yul\":5561:5567   */\n      0x00\n        /* \"#utility.yul\":5588:5608   */\n      tag_221\n      tag_102\n      jump\t// in\n    tag_221:\n        /* \"#utility.yul\":5578:5608   */\n      swap1\n      pop\n        /* \"#utility.yul\":5617:5650   */\n      tag_222\n        /* \"#utility.yul\":5645:5649   */\n      dup3\n        /* \"#utility.yul\":5637:5643   */\n      dup3\n        /* \"#utility.yul\":5617:5650   */\n      tag_125\n      jump\t// in\n    tag_222:\n        /* \"#utility.yul\":5527:5656   */\n      swap2\n      swap1\n      pop\n      jump\t// out\n        /* \"#utility.yul\":5662:5969   */\n    tag_127:\n        /* \"#utility.yul\":5723:5727   */\n      0x00\n        /* \"#utility.yul\":5813:5831   */\n      0xffffffffffffffff\n        /* \"#utility.yul\":5805:5811   */\n      dup3\n        /* \"#utility.yul\":5802:5832   */\n      gt\n        /* \"#utility.yul\":5799:5855   */\n      iszero\n      tag_224\n      jumpi\n        /* \"#utility.yul\":5835:5853   */\n      tag_225\n      tag_124\n      jump\t// in\n    tag_225:\n        /* \"#utility.yul\":5799:5855   */\n    tag_224:\n        /* \"#utility.yul\":5873:5902   */\n      tag_226\n        /* \"#utility.yul\":5895:5901   */\n      dup3\n        /* \"#utility.yul\":5873:5902   */\n      tag_123\n      jump\t// in\n    tag_226:\n        /* \"#utility.yul\":5865:5902   */\n      swap1\n      pop\n        /* \"#utility.yul\":5957:5961   */\n      0x20\n        /* \"#utility.yul\":5951:5955   */\n      dup2\n        /* \"#utility.yul\":5947:5962   */\n      add\n        /* \"#utility.yul\":5939:5962   */\n      swap1\n      pop\n        /* \"#utility.yul\":5662:5969   */\n      swap2\n      swap1\n      pop\n      jump\t// out\n        /* \"#utility.yul\":5975:6121   */\n    tag_128:\n        /* \"#utility.yul\":6072:6078   */\n      dup3\n        /* \"#utility.yul\":6067:6070   */\n      dup2\n        /* \"#utility.yul\":6062:6065   */\n      dup4\n        /* \"#utility.yul\":6049:6079   */\n      calldatacopy\n        /* \"#utility.yul\":6113:6114   */\n      0x00\n        /* \"#utility.yul\":6104:6110   */\n      dup4\n        /* \"#utility.yul\":6099:6102   */\n      dup4\n        /* \"#utility.yul\":6095:6111   */\n      add\n        /* \"#utility.yul\":6088:6115   */\n      mstore\n        /* \"#utility.yul\":5975:6121   */\n      pop\n      pop\n      pop\n      jump\t// out\n        /* \"#utility.yul\":6127:6550   */\n    tag_129:\n        /* \"#utility.yul\":6204:6209   */\n      0x00\n        /* \"#utility.yul\":6229:6294   */\n      tag_229\n        /* \"#utility.yul\":6245:6293   */\n      tag_230\n        /* \"#utility.yul\":6286:6292   */\n      dup5\n        /* \"#utility.yul\":6245:6293   */\n      tag_127\n      jump\t// in\n    tag_230:\n        /* \"#utility.yul\":6229:6294   */\n      tag_126\n      jump\t// in\n    tag_229:\n        /* \"#utility.yul\":6220:6294   */\n      swap1\n      pop\n        /* \"#utility.yul\":6317:6323   */\n      dup3\n        /* \"#utility.yul\":6310:6315   */\n      dup2\n        /* \"#utility.yul\":6303:6324   */\n      mstore\n        /* \"#utility.yul\":6355:6359   */\n      0x20\n        /* \"#utility.yul\":6348:6353   */\n      dup2\n        /* \"#utility.yul\":6344:6360   */\n      add\n        /* \"#utility.yul\":6393:6396   */\n      dup5\n        /* \"#utility.yul\":6384:6390   */\n      dup5\n        /* \"#utility.yul\":6379:6382   */\n      dup5\n        /* \"#utility.yul\":6375:6391   */\n      add\n        /* \"#utility.yul\":6372:6397   */\n      gt\n        /* \"#utility.yul\":6369:6481   */\n      iszero\n      tag_231\n      jumpi\n        /* \"#utility.yul\":6400:6479   */\n      tag_232\n      tag_122\n      jump\t// in\n    tag_232:\n        /* \"#utility.yul\":6369:6481   */\n    tag_231:\n        /* \"#utility.yul\":6490:6544   */\n      tag_233\n        /* \"#utility.yul\":6537:6543   */\n      dup5\n        /* \"#utility.yul\":6532:6535   */\n      dup3\n        /* \"#utility.yul\":6527:6530   */\n      dup6\n        /* \"#utility.yul\":6490:6544   */\n      tag_128\n      jump\t// in\n    tag_233:\n        /* \"#utility.yul\":6210:6550   */\n      pop\n        /* \"#utility.yul\":6127:6550   */\n      swap4\n      swap3\n      pop\n      pop\n      pop\n      jump\t// out\n        /* \"#utility.yul\":6569:6907   */\n    tag_130:\n        /* \"#utility.yul\":6624:6629   */\n      0x00\n        /* \"#utility.yul\":6673:6676   */\n      dup3\n        /* \"#utility.yul\":6666:6670   */\n      0x1f\n        /* \"#utility.yul\":6658:6664   */\n      dup4\n        /* \"#utility.yul\":6654:6671   */\n      add\n        /* \"#utility.yul\":6650:6677   */\n      slt\n        /* \"#utility.yul\":6640:6762   */\n      tag_235\n      jumpi\n        /* \"#utility.yul\":6681:6760   */\n      tag_236\n      tag_121\n      jump\t// in\n    tag_236:\n        /* \"#utility.yul\":6640:6762   */\n    tag_235:\n        /* \"#utility.yul\":6798:6804   */\n      dup2\n        /* \"#utility.yul\":6785:6805   */\n      calldataload\n        /* \"#utility.yul\":6823:6901   */\n      tag_237\n        /* \"#utility.yul\":6897:6900   */\n      dup5\n        /* \"#utility.yul\":6889:6895   */\n      dup3\n        /* \"#utility.yul\":6882:6886   */\n      0x20\n        /* \"#utility.yul\":6874:6880   */\n      dup7\n        /* \"#utility.yul\":6870:6887   */\n      add\n        /* \"#utility.yul\":6823:6901   */\n      tag_129\n      jump\t// in\n    tag_237:\n        /* \"#utility.yul\":6814:6901   */\n      swap2\n      pop\n        /* \"#utility.yul\":6630:6907   */\n      pop\n        /* \"#utility.yul\":6569:6907   */\n      swap3\n      swap2\n      pop\n      pop\n      jump\t// out\n        /* \"#utility.yul\":6913:7726   */\n    tag_60:\n        /* \"#utility.yul\":7007:7013   */\n      0x00\n        /* \"#utility.yul\":7015:7021   */\n      dup1\n        /* \"#utility.yul\":7023:7029   */\n      0x00\n        /* \"#utility.yul\":7072:7074   */\n      0x60\n        /* \"#utility.yul\":7060:7069   */\n      dup5\n        /* \"#utility.yul\":7051:7058   */\n      dup7\n        /* \"#utility.yul\":7047:7070   */\n      sub\n        /* \"#utility.yul\":7043:7075   */\n      slt\n        /* \"#utility.yul\":7040:7159   */\n      iszero\n      tag_239\n      jumpi\n        /* \"#utility.yul\":7078:7157   */\n      tag_240\n      tag_103\n      jump\t// in\n    tag_240:\n        /* \"#utility.yul\":7040:7159   */\n    tag_239:\n        /* \"#utility.yul\":7198:7199   */\n      0x00\n        /* \"#utility.yul\":7223:7284   */\n      tag_241\n        /* \"#utility.yul\":7276:7283   */\n      dup7\n        /* \"#utility.yul\":7267:7273   */\n      dup3\n        /* \"#utility.yul\":7256:7265   */\n      dup8\n        /* \"#utility.yul\":7252:7274   */\n      add\n        /* \"#utility.yul\":7223:7284   */\n      tag_120\n      jump\t// in\n    tag_241:\n        /* \"#utility.yul\":7213:7284   */\n      swap4\n      pop\n        /* \"#utility.yul\":7169:7294   */\n      pop\n        /* \"#utility.yul\":7333:7335   */\n      0x20\n        /* \"#utility.yul\":7359:7412   */\n      tag_242\n        /* \"#utility.yul\":7404:7411   */\n      dup7\n        /* \"#utility.yul\":7395:7401   */\n      dup3\n        /* \"#utility.yul\":7384:7393   */\n      dup8\n        /* \"#utility.yul\":7380:7402   */\n      add\n        /* \"#utility.yul\":7359:7412   */\n      tag_115\n      jump\t// in\n    tag_242:\n        /* \"#utility.yul\":7349:7412   */\n      swap3\n      pop\n        /* \"#utility.yul\":7304:7422   */\n      pop\n        /* \"#utility.yul\":7489:7491   */\n      0x40\n        /* \"#utility.yul\":7478:7487   */\n      dup5\n        /* \"#utility.yul\":7474:7492   */\n      add\n        /* \"#utility.yul\":7461:7493   */\n      calldataload\n        /* \"#utility.yul\":7520:7538   */\n      0xffffffffffffffff\n        /* \"#utility.yul\":7512:7518   */\n      dup2\n        /* \"#utility.yul\":7509:7539   */\n      gt\n        /* \"#utility.yul\":7506:7623   */\n      iszero\n      tag_243\n      jumpi\n        /* \"#utility.yul\":7542:7621   */\n      tag_244\n      tag_104\n      jump\t// in\n    tag_244:\n        /* \"#utility.yul\":7506:7623   */\n    tag_243:\n        /* \"#utility.yul\":7647:7709   */\n      tag_245\n        /* \"#utility.yul\":7701:7708   */\n      dup7\n        /* \"#utility.yul\":7692:7698   */\n      dup3\n        /* \"#utility.yul\":7681:7690   */\n      dup8\n        /* \"#utility.yul\":7677:7699   */\n      add\n        /* \"#utility.yul\":7647:7709   */\n      tag_130\n      jump\t// in\n    tag_245:\n        /* \"#utility.yul\":7637:7709   */\n      swap2\n      pop\n        /* \"#utility.yul\":7432:7719   */\n      pop\n        /* \"#utility.yul\":6913:7726   */\n      swap3\n      pop\n      swap3\n      pop\n      swap3\n      jump\t// out\n        /* \"#utility.yul\":7732:7830   */\n    tag_131:\n        /* \"#utility.yul\":7783:7789   */\n      0x00\n        /* \"#utility.yul\":7817:7822   */\n      dup2\n        /* \"#utility.yul\":7811:7823   */\n      mload\n        /* \"#utility.yul\":7801:7823   */\n      swap1\n      pop\n        /* \"#utility.yul\":7732:7830   */\n      swap2\n      swap1\n      pop\n      jump\t// out\n        /* \"#utility.yul\":7836:8004   */\n    tag_132:\n        /* \"#utility.yul\":7919:7930   */\n      0x00\n        /* \"#utility.yul\":7953:7959   */\n      dup3\n        /* \"#utility.yul\":7948:7951   */\n      dup3\n        /* \"#utility.yul\":7941:7960   */\n      mstore\n        /* \"#utility.yul\":7993:7997   */\n      0x20\n        /* \"#utility.yul\":7988:7991   */\n      dup3\n        /* \"#utility.yul\":7984:7998   */\n      add\n        /* \"#utility.yul\":7969:7998   */\n      swap1\n      pop\n        /* \"#utility.yul\":7836:8004   */\n      swap3\n      swap2\n      pop\n      pop\n      jump\t// out\n        /* \"#utility.yul\":8010:8256   */\n    tag_133:\n        /* \"#utility.yul\":8091:8092   */\n      0x00\n        /* \"#utility.yul\":8101:8214   */\n    tag_249:\n        /* \"#utility.yul\":8115:8121   */\n      dup4\n        /* \"#utility.yul\":8112:8113   */\n      dup2\n        /* \"#utility.yul\":8109:8122   */\n      lt\n        /* \"#utility.yul\":8101:8214   */\n      iszero\n      tag_251\n      jumpi\n        /* \"#utility.yul\":8200:8201   */\n      dup1\n        /* \"#utility.yul\":8195:8198   */\n      dup3\n        /* \"#utility.yul\":8191:8202   */\n      add\n        /* \"#utility.yul\":8185:8203   */\n      mload\n        /* \"#utility.yul\":8181:8182   */\n      dup2\n        /* \"#utility.yul\":8176:8179   */\n      dup5\n        /* \"#utility.yul\":8172:8183   */\n      add\n        /* \"#utility.yul\":8165:8204   */\n      mstore\n        /* \"#utility.yul\":8137:8139   */\n      0x20\n        /* \"#utility.yul\":8134:8135   */\n      dup2\n        /* \"#utility.yul\":8130:8140   */\n      add\n        /* \"#utility.yul\":8125:8140   */\n      swap1\n      pop\n        /* \"#utility.yul\":8101:8214   */\n      jump(tag_249)\n    tag_251:\n        /* \"#utility.yul\":8248:8249   */\n      0x00\n        /* \"#utility.yul\":8239:8245   */\n      dup5\n        /* \"#utility.yul\":8234:8237   */\n      dup5\n        /* \"#utility.yul\":8230:8246   */\n      add\n        /* \"#utility.yul\":8223:8250   */\n      mstore\n        /* \"#utility.yul\":8072:8256   */\n      pop\n        /* \"#utility.yul\":8010:8256   */\n      pop\n      pop\n      pop\n      jump\t// out\n        /* \"#utility.yul\":8262:8635   */\n    tag_134:\n        /* \"#utility.yul\":8348:8351   */\n      0x00\n        /* \"#utility.yul\":8376:8414   */\n      tag_253\n        /* \"#utility.yul\":8408:8413   */\n      dup3\n        /* \"#utility.yul\":8376:8414   */\n      tag_131\n      jump\t// in\n    tag_253:\n        /* \"#utility.yul\":8430:8500   */\n      tag_254\n        /* \"#utility.yul\":8493:8499   */\n      dup2\n        /* \"#utility.yul\":8488:8491   */\n      dup6\n        /* \"#utility.yul\":8430:8500   */\n      tag_132\n      jump\t// in\n    tag_254:\n        /* \"#utility.yul\":8423:8500   */\n      swap4\n      pop\n        /* \"#utility.yul\":8509:8574   */\n      tag_255\n        /* \"#utility.yul\":8567:8573   */\n      dup2\n        /* \"#utility.yul\":8562:8565   */\n      dup6\n        /* \"#utility.yul\":8555:8559   */\n      0x20\n        /* \"#utility.yul\":8548:8553   */\n      dup7\n        /* \"#utility.yul\":8544:8560   */\n      add\n        /* \"#utility.yul\":8509:8574   */\n      tag_133\n      jump\t// in\n    tag_255:\n        /* \"#utility.yul\":8599:8628   */\n      tag_256\n        /* \"#utility.yul\":8621:8627   */\n      dup2\n        /* \"#utility.yul\":8599:8628   */\n      tag_123\n      jump\t// in\n    tag_256:\n        /* \"#utility.yul\":8594:8597   */\n      dup5\n        /* \"#utility.yul\":8590:8629   */\n      add\n        /* \"#utility.yul\":8583:8629   */\n      swap2\n      pop\n        /* \"#utility.yul\":8352:8635   */\n      pop\n        /* \"#utility.yul\":8262:8635   */\n      swap3\n      swap2\n      pop\n      pop\n      jump\t// out\n        /* \"#utility.yul\":8641:8950   */\n    tag_63:\n        /* \"#utility.yul\":8752:8756   */\n      0x00\n        /* \"#utility.yul\":8790:8792   */\n      0x20\n        /* \"#utility.yul\":8779:8788   */\n      dup3\n        /* \"#utility.yul\":8775:8793   */\n      add\n        /* \"#utility.yul\":8767:8793   */\n      swap1\n      pop\n        /* \"#utility.yul\":8839:8848   */\n      dup2\n        /* \"#utility.yul\":8833:8837   */\n      dup2\n        /* \"#utility.yul\":8829:8849   */\n      sub\n        /* \"#utility.yul\":8825:8826   */\n      0x00\n        /* \"#utility.yul\":8814:8823   */\n      dup4\n        /* \"#utility.yul\":8810:8827   */\n      add\n        /* \"#utility.yul\":8803:8850   */\n      mstore\n        /* \"#utility.yul\":8867:8943   */\n      tag_258\n        /* \"#utility.yul\":8938:8942   */\n      dup2\n        /* \"#utility.yul\":8929:8935   */\n      dup5\n        /* \"#utility.yul\":8867:8943   */\n      tag_134\n      jump\t// in\n    tag_258:\n        /* \"#utility.yul\":8859:8943   */\n      swap1\n      pop\n        /* \"#utility.yul\":8641:8950   */\n      swap3\n      swap2\n      pop\n      pop\n      jump\t// out\n        /* \"#utility.yul\":8956:9125   */\n    tag_135:\n        /* \"#utility.yul\":9040:9051   */\n      0x00\n        /* \"#utility.yul\":9074:9080   */\n      dup3\n        /* \"#utility.yul\":9069:9072   */\n      dup3\n        /* \"#utility.yul\":9062:9081   */\n      mstore\n        /* \"#utility.yul\":9114:9118   */\n      0x20\n        /* \"#utility.yul\":9109:9112   */\n      dup3\n        /* \"#utility.yul\":9105:9119   */\n      add\n        /* \"#utility.yul\":9090:9119   */\n      swap1\n      pop\n        /* \"#utility.yul\":8956:9125   */\n      swap3\n      swap2\n      pop\n      pop\n      jump\t// out\n        /* \"#utility.yul\":9131:9312   */\n    tag_136:\n        /* \"#utility.yul\":9271:9304   */\n      0x596f7520617265206e6f7420746865206f776e65722c2061626f7274696e6700\n        /* \"#utility.yul\":9267:9268   */\n      0x00\n        /* \"#utility.yul\":9259:9265   */\n      dup3\n        /* \"#utility.yul\":9255:9269   */\n      add\n        /* \"#utility.yul\":9248:9305   */\n      mstore\n        /* \"#utility.yul\":9131:9312   */\n      pop\n      jump\t// out\n        /* \"#utility.yul\":9318:9684   */\n    tag_137:\n        /* \"#utility.yul\":9460:9463   */\n      0x00\n        /* \"#utility.yul\":9481:9548   */\n      tag_262\n        /* \"#utility.yul\":9545:9547   */\n      0x1f\n        /* \"#utility.yul\":9540:9543   */\n      dup4\n        /* \"#utility.yul\":9481:9548   */\n      tag_135\n      jump\t// in\n    tag_262:\n        /* \"#utility.yul\":9474:9548   */\n      swap2\n      pop\n        /* \"#utility.yul\":9557:9650   */\n      tag_263\n        /* \"#utility.yul\":9646:9649   */\n      dup3\n        /* \"#utility.yul\":9557:9650   */\n      tag_136\n      jump\t// in\n    tag_263:\n        /* \"#utility.yul\":9675:9677   */\n      0x20\n        /* \"#utility.yul\":9670:9673   */\n      dup3\n        /* \"#utility.yul\":9666:9678   */\n      add\n        /* \"#utility.yul\":9659:9678   */\n      swap1\n      pop\n        /* \"#utility.yul\":9318:9684   */\n      swap2\n      swap1\n      pop\n      jump\t// out\n        /* \"#utility.yul\":9690:10109   */\n    tag_67:\n        /* \"#utility.yul\":9856:9860   */\n      0x00\n        /* \"#utility.yul\":9894:9896   */\n      0x20\n        /* \"#utility.yul\":9883:9892   */\n      dup3\n        /* \"#utility.yul\":9879:9897   */\n      add\n        /* \"#utility.yul\":9871:9897   */\n      swap1\n      pop\n        /* \"#utility.yul\":9943:9952   */\n      dup2\n        /* \"#utility.yul\":9937:9941   */\n      dup2\n        /* \"#utility.yul\":9933:9953   */\n      sub\n        /* \"#utility.yul\":9929:9930   */\n      0x00\n        /* \"#utility.yul\":9918:9927   */\n      dup4\n        /* \"#utility.yul\":9914:9931   */\n      add\n        /* \"#utility.yul\":9907:9954   */\n      mstore\n        /* \"#utility.yul\":9971:10102   */\n      tag_265\n        /* \"#utility.yul\":10097:10101   */\n      dup2\n        /* \"#utility.yul\":9971:10102   */\n      tag_137\n      jump\t// in\n    tag_265:\n        /* \"#utility.yul\":9963:10102   */\n      swap1\n      pop\n        /* \"#utility.yul\":9690:10109   */\n      swap2\n      swap1\n      pop\n      jump\t// out\n        /* \"#utility.yul\":10115:10349   */\n    tag_138:\n        /* \"#utility.yul\":10255:10289   */\n      0x596f7520617265206e6f74206120677561726469616e206f6620746869732077\n        /* \"#utility.yul\":10251:10252   */\n      0x00\n        /* \"#utility.yul\":10243:10249   */\n      dup3\n        /* \"#utility.yul\":10239:10253   */\n      add\n        /* \"#utility.yul\":10232:10290   */\n      mstore\n        /* \"#utility.yul\":10324:10341   */\n      0x616c6c65742c2061626f7274696e670000000000000000000000000000000000\n        /* \"#utility.yul\":10319:10321   */\n      0x20\n        /* \"#utility.yul\":10311:10317   */\n      dup3\n        /* \"#utility.yul\":10307:10322   */\n      add\n        /* \"#utility.yul\":10300:10342   */\n      mstore\n        /* \"#utility.yul\":10115:10349   */\n      pop\n      jump\t// out\n        /* \"#utility.yul\":10355:10721   */\n    tag_139:\n        /* \"#utility.yul\":10497:10500   */\n      0x00\n        /* \"#utility.yul\":10518:10585   */\n      tag_268\n        /* \"#utility.yul\":10582:10584   */\n      0x2f\n        /* \"#utility.yul\":10577:10580   */\n      dup4\n        /* \"#utility.yul\":10518:10585   */\n      tag_135\n      jump\t// in\n    tag_268:\n        /* \"#utility.yul\":10511:10585   */\n      swap2\n      pop\n        /* \"#utility.yul\":10594:10687   */\n      tag_269\n        /* \"#utility.yul\":10683:10686   */\n      dup3\n        /* \"#utility.yul\":10594:10687   */\n      tag_138\n      jump\t// in\n    tag_269:\n        /* \"#utility.yul\":10712:10714   */\n      0x40\n        /* \"#utility.yul\":10707:10710   */\n      dup3\n        /* \"#utility.yul\":10703:10715   */\n      add\n        /* \"#utility.yul\":10696:10715   */\n      swap1\n      pop\n        /* \"#utility.yul\":10355:10721   */\n      swap2\n      swap1\n      pop\n      jump\t// out\n        /* \"#utility.yul\":10727:11146   */\n    tag_76:\n        /* \"#utility.yul\":10893:10897   */\n      0x00\n        /* \"#utility.yul\":10931:10933   */\n      0x20\n        /* \"#utility.yul\":10920:10929   */\n      dup3\n        /* \"#utility.yul\":10916:10934   */\n      add\n        /* \"#utility.yul\":10908:10934   */\n      swap1\n      pop\n        /* \"#utility.yul\":10980:10989   */\n      dup2\n        /* \"#utility.yul\":10974:10978   */\n      dup2\n        /* \"#utility.yul\":10970:10990   */\n      sub\n        /* \"#utility.yul\":10966:10967   */\n      0x00\n        /* \"#utility.yul\":10955:10964   */\n      dup4\n        /* \"#utility.yul\":10951:10968   */\n      add\n        /* \"#utility.yul\":10944:10991   */\n      mstore\n        /* \"#utility.yul\":11008:11139   */\n      tag_271\n        /* \"#utility.yul\":11134:11138   */\n      dup2\n        /* \"#utility.yul\":11008:11139   */\n      tag_139\n      jump\t// in\n    tag_271:\n        /* \"#utility.yul\":11000:11139   */\n      swap1\n      pop\n        /* \"#utility.yul\":10727:11146   */\n      swap2\n      swap1\n      pop\n      jump\t// out\n        /* \"#utility.yul\":11152:11334   */\n    tag_140:\n        /* \"#utility.yul\":11292:11326   */\n      0x596f75206861766520616c726561647920766f7465642c2061626f7274696e67\n        /* \"#utility.yul\":11288:11289   */\n      0x00\n        /* \"#utility.yul\":11280:11286   */\n      dup3\n        /* \"#utility.yul\":11276:11290   */\n      add\n        /* \"#utility.yul\":11269:11327   */\n      mstore\n        /* \"#utility.yul\":11152:11334   */\n      pop\n      jump\t// out\n        /* \"#utility.yul\":11340:11706   */\n    tag_141:\n        /* \"#utility.yul\":11482:11485   */\n      0x00\n        /* \"#utility.yul\":11503:11570   */\n      tag_274\n        /* \"#utility.yul\":11567:11569   */\n      0x20\n        /* \"#utility.yul\":11562:11565   */\n      dup4\n        /* \"#utility.yul\":11503:11570   */\n      tag_135\n      jump\t// in\n    tag_274:\n        /* \"#utility.yul\":11496:11570   */\n      swap2\n      pop\n        /* \"#utility.yul\":11579:11672   */\n      tag_275\n        /* \"#utility.yul\":11668:11671   */\n      dup3\n        /* \"#utility.yul\":11579:11672   */\n      tag_140\n      jump\t// in\n    tag_275:\n        /* \"#utility.yul\":11697:11699   */\n      0x20\n        /* \"#utility.yul\":11692:11695   */\n      dup3\n        /* \"#utility.yul\":11688:11700   */\n      add\n        /* \"#utility.yul\":11681:11700   */\n      swap1\n      pop\n        /* \"#utility.yul\":11340:11706   */\n      swap2\n      swap1\n      pop\n      jump\t// out\n        /* \"#utility.yul\":11712:12131   */\n    tag_79:\n        /* \"#utility.yul\":11878:11882   */\n      0x00\n        /* \"#utility.yul\":11916:11918   */\n      0x20\n        /* \"#utility.yul\":11905:11914   */\n      dup3\n        /* \"#utility.yul\":11901:11919   */\n      add\n        /* \"#utility.yul\":11893:11919   */\n      swap1\n      pop\n        /* \"#utility.yul\":11965:11974   */\n      dup2\n        /* \"#utility.yul\":11959:11963   */\n      dup2\n        /* \"#utility.yul\":11955:11975   */\n      sub\n        /* \"#utility.yul\":11951:11952   */\n      0x00\n        /* \"#utility.yul\":11940:11949   */\n      dup4\n        /* \"#utility.yul\":11936:11953   */\n      add\n        /* \"#utility.yul\":11929:11976   */\n      mstore\n        /* \"#utility.yul\":11993:12124   */\n      tag_277\n        /* \"#utility.yul\":12119:12123   */\n      dup2\n        /* \"#utility.yul\":11993:12124   */\n      tag_141\n      jump\t// in\n    tag_277:\n        /* \"#utility.yul\":11985:12124   */\n      swap1\n      pop\n        /* \"#utility.yul\":11712:12131   */\n      swap2\n      swap1\n      pop\n      jump\t// out\n        /* \"#utility.yul\":12137:12317   */\n    tag_142:\n        /* \"#utility.yul\":12185:12262   */\n      0x4e487b7100000000000000000000000000000000000000000000000000000000\n        /* \"#utility.yul\":12182:12183   */\n      0x00\n        /* \"#utility.yul\":12175:12263   */\n      mstore\n        /* \"#utility.yul\":12282:12286   */\n      0x11\n        /* \"#utility.yul\":12279:12280   */\n      0x04\n        /* \"#utility.yul\":12272:12287   */\n      mstore\n        /* \"#utility.yul\":12306:12310   */\n      0x24\n        /* \"#utility.yul\":12303:12304   */\n      0x00\n        /* \"#utility.yul\":12296:12311   */\n      revert\n        /* \"#utility.yul\":12323:12556   */\n    tag_82:\n        /* \"#utility.yul\":12362:12365   */\n      0x00\n        /* \"#utility.yul\":12385:12409   */\n      tag_280\n        /* \"#utility.yul\":12403:12408   */\n      dup3\n        /* \"#utility.yul\":12385:12409   */\n      tag_113\n      jump\t// in\n    tag_280:\n        /* \"#utility.yul\":12376:12409   */\n      swap2\n      pop\n        /* \"#utility.yul\":12431:12497   */\n      0xffffffffffffffffffffffffffffffffffffffffffffffffffffffffffffffff\n        /* \"#utility.yul\":12424:12429   */\n      dup3\n        /* \"#utility.yul\":12421:12498   */\n      sub\n        /* \"#utility.yul\":12418:12521   */\n      tag_281\n      jumpi\n        /* \"#utility.yul\":12501:12519   */\n      tag_282\n      tag_142\n      jump\t// in\n    tag_282:\n        /* \"#utility.yul\":12418:12521   */\n    tag_281:\n        /* \"#utility.yul\":12548:12549   */\n      0x01\n        /* \"#utility.yul\":12541:12546   */\n      dup3\n        /* \"#utility.yul\":12537:12550   */\n      add\n        /* \"#utility.yul\":12530:12550   */\n      swap1\n      pop\n        /* \"#utility.yul\":12323:12556   */\n      swap2\n      swap1\n      pop\n      jump\t// out\n        /* \"#utility.yul\":12562:12810   */\n    tag_143:\n        /* \"#utility.yul\":12702:12736   */\n      0x596f752061726520747279696e6720746f2073656e64206d6f7265207468616e\n        /* \"#utility.yul\":12698:12699   */\n      0x00\n        /* \"#utility.yul\":12690:12696   */\n      dup3\n        /* \"#utility.yul\":12686:12700   */\n      add\n        /* \"#utility.yul\":12679:12737   */\n      mstore\n        /* \"#utility.yul\":12771:12802   */\n      0x20796f752061726520616c6c6f77656420746f2c2061626f7274696e67000000\n        /* \"#utility.yul\":12766:12768   */\n      0x20\n        /* \"#utility.yul\":12758:12764   */\n      dup3\n        /* \"#utility.yul\":12754:12769   */\n      add\n        /* \"#utility.yul\":12747:12803   */\n      mstore\n        /* \"#utility.yul\":12562:12810   */\n      pop\n      jump\t// out\n        /* \"#utility.yul\":12816:13182   */\n    tag_144:\n        /* \"#utility.yul\":12958:12961   */\n      0x00\n        /* \"#utility.yul\":12979:13046   */\n      tag_285\n        /* \"#utility.yul\":13043:13045   */\n      0x3d\n        /* \"#utility.yul\":13038:13041   */\n      dup4\n        /* \"#utility.yul\":12979:13046   */\n      tag_135\n      jump\t// in\n    tag_285:\n        /* \"#utility.yul\":12972:13046   */\n      swap2\n      pop\n        /* \"#utility.yul\":13055:13148   */\n      tag_286\n        /* \"#utility.yul\":13144:13147   */\n      dup3\n        /* \"#utility.yul\":13055:13148   */\n      tag_143\n      jump\t// in\n    tag_286:\n        /* \"#utility.yul\":13173:13175   */\n      0x40\n        /* \"#utility.yul\":13168:13171   */\n      dup3\n        /* \"#utility.yul\":13164:13176   */\n      add\n        /* \"#utility.yul\":13157:13176   */\n      swap1\n      pop\n        /* \"#utility.yul\":12816:13182   */\n      swap2\n      swap1\n      pop\n      jump\t// out\n        /* \"#utility.yul\":13188:13607   */\n    tag_88:\n        /* \"#utility.yul\":13354:13358   */\n      0x00\n        /* \"#utility.yul\":13392:13394   */\n      0x20\n        /* \"#utility.yul\":13381:13390   */\n      dup3\n        /* \"#utility.yul\":13377:13395   */\n      add\n        /* \"#utility.yul\":13369:13395   */\n      swap1\n      pop\n        /* \"#utility.yul\":13441:13450   */\n      dup2\n        /* \"#utility.yul\":13435:13439   */\n      dup2\n        /* \"#utility.yul\":13431:13451   */\n      sub\n        /* \"#utility.yul\":13427:13428   */\n      0x00\n        /* \"#utility.yul\":13416:13425   */\n      dup4\n        /* \"#utility.yul\":13412:13429   */\n      add\n        /* \"#utility.yul\":13405:13452   */\n      mstore\n        /* \"#utility.yul\":13469:13600   */\n      tag_288\n        /* \"#utility.yul\":13595:13599   */\n      dup2\n        /* \"#utility.yul\":13469:13600   */\n      tag_144\n      jump\t// in\n    tag_288:\n        /* \"#utility.yul\":13461:13600   */\n      swap1\n      pop\n        /* \"#utility.yul\":13188:13607   */\n      swap2\n      swap1\n      pop\n      jump\t// out\n        /* \"#utility.yul\":13613:13908   */\n    tag_145:\n        /* \"#utility.yul\":13753:13787   */\n      0x596f7520617265206e6f7420616c6c6f77656420746f2073656e6420616e7974\n        /* \"#utility.yul\":13749:13750   */\n      0x00\n        /* \"#utility.yul\":13741:13747   */\n      dup3\n        /* \"#utility.yul\":13737:13751   */\n      add\n        /* \"#utility.yul\":13730:13788   */\n      mstore\n        /* \"#utility.yul\":13822:13856   */\n      0x68696e672066726f6d207468697320736d61727420636f6e74726163742c2061\n        /* \"#utility.yul\":13817:13819   */\n      0x20\n        /* \"#utility.yul\":13809:13815   */\n      dup3\n        /* \"#utility.yul\":13805:13820   */\n      add\n        /* \"#utility.yul\":13798:13857   */\n      mstore\n        /* \"#utility.yul\":13891:13900   */\n      0x626f7274696e6700000000000000000000000000000000000000000000000000\n        /* \"#utility.yul\":13886:13888   */\n      0x40\n        /* \"#utility.yul\":13878:13884   */\n      dup3\n        /* \"#utility.yul\":13874:13889   */\n      add\n        /* \"#utility.yul\":13867:13901   */\n      mstore\n        /* \"#utility.yul\":13613:13908   */\n      pop\n      jump\t// out\n        /* \"#utility.yul\":13914:14280   */\n    tag_146:\n        /* \"#utility.yul\":14056:14059   */\n      0x00\n        /* \"#utility.yul\":14077:14144   */\n      tag_291\n        /* \"#utility.yul\":14141:14143   */\n      0x47\n        /* \"#utility.yul\":14136:14139   */\n      dup4\n        /* \"#utility.yul\":14077:14144   */\n      tag_135\n      jump\t// in\n    tag_291:\n        /* \"#utility.yul\":14070:14144   */\n      swap2\n      pop\n        /* \"#utility.yul\":14153:14246   */\n      tag_292\n        /* \"#utility.yul\":14242:14245   */\n      dup3\n        /* \"#utility.yul\":14153:14246   */\n      tag_145\n      jump\t// in\n    tag_292:\n        /* \"#utility.yul\":14271:14273   */\n      0x60\n        /* \"#utility.yul\":14266:14269   */\n      dup3\n        /* \"#utility.yul\":14262:14274   */\n      add\n        /* \"#utility.yul\":14255:14274   */\n      swap1\n      pop\n        /* \"#utility.yul\":13914:14280   */\n      swap2\n      swap1\n      pop\n      jump\t// out\n        /* \"#utility.yul\":14286:14705   */\n    tag_91:\n        /* \"#utility.yul\":14452:14456   */\n      0x00\n        /* \"#utility.yul\":14490:14492   */\n      0x20\n        /* \"#utility.yul\":14479:14488   */\n      dup3\n        /* \"#utility.yul\":14475:14493   */\n      add\n        /* \"#utility.yul\":14467:14493   */\n      swap1\n      pop\n        /* \"#utility.yul\":14539:14548   */\n      dup2\n        /* \"#utility.yul\":14533:14537   */\n      dup2\n        /* \"#utility.yul\":14529:14549   */\n      sub\n        /* \"#utility.yul\":14525:14526   */\n      0x00\n        /* \"#utility.yul\":14514:14523   */\n      dup4\n        /* \"#utility.yul\":14510:14527   */\n      add\n        /* \"#utility.yul\":14503:14550   */\n      mstore\n        /* \"#utility.yul\":14567:14698   */\n      tag_294\n        /* \"#utility.yul\":14693:14697   */\n      dup2\n        /* \"#utility.yul\":14567:14698   */\n      tag_146\n      jump\t// in\n    tag_294:\n        /* \"#utility.yul\":14559:14698   */\n      swap1\n      pop\n        /* \"#utility.yul\":14286:14705   */\n      swap2\n      swap1\n      pop\n      jump\t// out\n        /* \"#utility.yul\":14711:14905   */\n    tag_93:\n        /* \"#utility.yul\":14751:14755   */\n      0x00\n        /* \"#utility.yul\":14771:14791   */\n      tag_296\n        /* \"#utility.yul\":14789:14790   */\n      dup3\n        /* \"#utility.yul\":14771:14791   */\n      tag_113\n      jump\t// in\n    tag_296:\n        /* \"#utility.yul\":14766:14791   */\n      swap2\n      pop\n        /* \"#utility.yul\":14805:14825   */\n      tag_297\n        /* \"#utility.yul\":14823:14824   */\n      dup4\n        /* \"#utility.yul\":14805:14825   */\n      tag_113\n      jump\t// in\n    tag_297:\n        /* \"#utility.yul\":14800:14825   */\n      swap3\n      pop\n        /* \"#utility.yul\":14849:14850   */\n      dup3\n        /* \"#utility.yul\":14846:14847   */\n      dup3\n        /* \"#utility.yul\":14842:14851   */\n      sub\n        /* \"#utility.yul\":14834:14851   */\n      swap1\n      pop\n        /* \"#utility.yul\":14873:14874   */\n      dup2\n        /* \"#utility.yul\":14867:14871   */\n      dup2\n        /* \"#utility.yul\":14864:14875   */\n      gt\n        /* \"#utility.yul\":14861:14898   */\n      iszero\n      tag_298\n      jumpi\n        /* \"#utility.yul\":14878:14896   */\n      tag_299\n      tag_142\n      jump\t// in\n    tag_299:\n        /* \"#utility.yul\":14861:14898   */\n    tag_298:\n        /* \"#utility.yul\":14711:14905   */\n      swap3\n      swap2\n      pop\n      pop\n      jump\t// out\n        /* \"#utility.yul\":14911:15058   */\n    tag_147:\n        /* \"#utility.yul\":15012:15023   */\n      0x00\n        /* \"#utility.yul\":15049:15052   */\n      dup2\n        /* \"#utility.yul\":15034:15052   */\n      swap1\n      pop\n        /* \"#utility.yul\":14911:15058   */\n      swap3\n      swap2\n      pop\n      pop\n      jump\t// out\n        /* \"#utility.yul\":15064:15450   */\n    tag_148:\n        /* \"#utility.yul\":15168:15171   */\n      0x00\n        /* \"#utility.yul\":15196:15234   */\n      tag_302\n        /* \"#utility.yul\":15228:15233   */\n      dup3\n        /* \"#utility.yul\":15196:15234   */\n      tag_131\n      jump\t// in\n    tag_302:\n        /* \"#utility.yul\":15250:15338   */\n      tag_303\n        /* \"#utility.yul\":15331:15337   */\n      dup2\n        /* \"#utility.yul\":15326:15329   */\n      dup6\n        /* \"#utility.yul\":15250:15338   */\n      tag_147\n      jump\t// in\n    tag_303:\n        /* \"#utility.yul\":15243:15338   */\n      swap4\n      pop\n        /* \"#utility.yul\":15347:15412   */\n      tag_304\n        /* \"#utility.yul\":15405:15411   */\n      dup2\n        /* \"#utility.yul\":15400:15403   */\n      dup6\n        /* \"#utility.yul\":15393:15397   */\n      0x20\n        /* \"#utility.yul\":15386:15391   */\n      dup7\n        /* \"#utility.yul\":15382:15398   */\n      add\n        /* \"#utility.yul\":15347:15412   */\n      tag_133\n      jump\t// in\n    tag_304:\n        /* \"#utility.yul\":15437:15443   */\n      dup1\n        /* \"#utility.yul\":15432:15435   */\n      dup5\n        /* \"#utility.yul\":15428:15444   */\n      add\n        /* \"#utility.yul\":15421:15444   */\n      swap2\n      pop\n        /* \"#utility.yul\":15172:15450   */\n      pop\n        /* \"#utility.yul\":15064:15450   */\n      swap3\n      swap2\n      pop\n      pop\n      jump\t// out\n        /* \"#utility.yul\":15456:15727   */\n    tag_95:\n        /* \"#utility.yul\":15586:15589   */\n      0x00\n        /* \"#utility.yul\":15608:15701   */\n      tag_306\n        /* \"#utility.yul\":15697:15700   */\n      dup3\n        /* \"#utility.yul\":15688:15694   */\n      dup5\n        /* \"#utility.yul\":15608:15701   */\n      tag_148\n      jump\t// in\n    tag_306:\n        /* \"#utility.yul\":15601:15701   */\n      swap2\n      pop\n        /* \"#utility.yul\":15718:15721   */\n      dup2\n        /* \"#utility.yul\":15711:15721   */\n      swap1\n      pop\n        /* \"#utility.yul\":15456:15727   */\n      swap3\n      swap2\n      pop\n      pop\n      jump\t// out\n        /* \"#utility.yul\":15733:15953   */\n    tag_149:\n        /* \"#utility.yul\":15873:15907   */\n      0x41626f7274696e672c2063616c6c20776173206e6f7420737563636573736675\n        /* \"#utility.yul\":15869:15870   */\n      0x00\n        /* \"#utility.yul\":15861:15867   */\n      dup3\n        /* \"#utility.yul\":15857:15871   */\n      add\n        /* \"#utility.yul\":15850:15908   */\n      mstore\n        /* \"#utility.yul\":15942:15945   */\n      0x6c00000000000000000000000000000000000000000000000000000000000000\n        /* \"#utility.yul\":15937:15939   */\n      0x20\n        /* \"#utility.yul\":15929:15935   */\n      dup3\n        /* \"#utility.yul\":15925:15940   */\n      add\n        /* \"#utility.yul\":15918:15946   */\n      mstore\n        /* \"#utility.yul\":15733:15953   */\n      pop\n      jump\t// out\n        /* \"#utility.yul\":15959:16325   */\n    tag_150:\n        /* \"#utility.yul\":16101:16104   */\n      0x00\n        /* \"#utility.yul\":16122:16189   */\n      tag_309\n        /* \"#utility.yul\":16186:16188   */\n      0x21\n        /* \"#utility.yul\":16181:16184   */\n      dup4\n        /* \"#utility.yul\":16122:16189   */\n      tag_135\n      jump\t// in\n    tag_309:\n        /* \"#utility.yul\":16115:16189   */\n      swap2\n      pop\n        /* \"#utility.yul\":16198:16291   */\n      tag_310\n        /* \"#utility.yul\":16287:16290   */\n      dup3\n        /* \"#utility.yul\":16198:16291   */\n      tag_149\n      jump\t// in\n    tag_310:\n        /* \"#utility.yul\":16316:16318   */\n      0x40\n        /* \"#utility.yul\":16311:16314   */\n      dup3\n        /* \"#utility.yul\":16307:16319   */\n      add\n        /* \"#utility.yul\":16300:16319   */\n      swap1\n      pop\n        /* \"#utility.yul\":15959:16325   */\n      swap2\n      swap1\n      pop\n      jump\t// out\n        /* \"#utility.yul\":16331:16750   */\n    tag_101:\n        /* \"#utility.yul\":16497:16501   */\n      0x00\n        /* \"#utility.yul\":16535:16537   */\n      0x20\n        /* \"#utility.yul\":16524:16533   */\n      dup3\n        /* \"#utility.yul\":16520:16538   */\n      add\n        /* \"#utility.yul\":16512:16538   */\n      swap1\n      pop\n        /* \"#utility.yul\":16584:16593   */\n      dup2\n        /* \"#utility.yul\":16578:16582   */\n      dup2\n        /* \"#utility.yul\":16574:16594   */\n      sub\n        /* \"#utility.yul\":16570:16571   */\n      0x00\n        /* \"#utility.yul\":16559:16568   */\n      dup4\n        /* \"#utility.yul\":16555:16572   */\n      add\n        /* \"#utility.yul\":16548:16595   */\n      mstore\n        /* \"#utility.yul\":16612:16743   */\n      tag_312\n        /* \"#utility.yul\":16738:16742   */\n      dup2\n        /* \"#utility.yul\":16612:16743   */\n      tag_150\n      jump\t// in\n    tag_312:\n        /* \"#utility.yul\":16604:16743   */\n      swap1\n      pop\n        /* \"#utility.yul\":16331:16750   */\n      swap2\n      swap1\n      pop\n      jump\t// out\n\n    auxdata: 0xa2646970667358221220fb9fda818c1ab281f413b63dac440b525d56f65b5a8b4af11201c22c609b3af664736f6c63430008100033\n}\n",
				"bytecode": {
					"linkReferences": {},
					"object": "608060405234801561001057600080fd5b50336000806101000a81548173ffffffffffffffffffffffffffffffffffffffff021916908373ffffffffffffffffffffffffffffffffffffffff1602179055506113ec806100606000396000f3fe60806040526004361061008a5760003560e01c80633e5beab9116100595780633e5beab91461016257806383012be11461019f5780638da5cb5b146101ca578063b1f8100d146101f5578063be45fd621461021e57610091565b80630633b14a146100965780630bc605ad146100d35780632b8a1c5a14610110578063310ec4a71461013957610091565b3661009157005b600080fd5b3480156100a257600080fd5b506100bd60048036038101906100b89190610b07565b61025b565b6040516100ca9190610b4f565b60405180910390f35b3480156100df57600080fd5b506100fa60048036038101906100f59190610b07565b61027b565b6040516101079190610b4f565b60405180910390f35b34801561011c57600080fd5b5061013760048036038101906101329190610b96565b61029b565b005b34801561014557600080fd5b50610160600480360381019061015b9190610c0c565b610384565b005b34801561016e57600080fd5b5061018960048036038101906101849190610b07565b610519565b6040516101969190610c5b565b60405180910390f35b3480156101ab57600080fd5b506101b4610531565b6040516101c19190610c5b565b60405180910390f35b3480156101d657600080fd5b506101df610536565b6040516101ec9190610c97565b60405180910390f35b34801561020157600080fd5b5061021c60048036038101906102179190610cde565b61055a565b005b34801561022a57600080fd5b5061024560048036038101906102409190610e51565b61081f565b6040516102529190610f3f565b60405180910390f35b60036020528060005260406000206000915054906101000a900460ff1681565b60026020528060005260406000206000915054906101000a900460ff1681565b60008054906101000a900473ffffffffffffffffffffffffffffffffffffffff1673ffffffffffffffffffffffffffffffffffffffff163373ffffffffffffffffffffffffffffffffffffffff1614610329576040517f08c379a000000000000000000000000000000000000000000000000000000000815260040161032090610fbe565b60405180910390fd5b80600360008473ffffffffffffffffffffffffffffffffffffffff1673ffffffffffffffffffffffffffffffffffffffff16815260200190815260200160002060006101000a81548160ff0219169083151502179055505050565b60008054906101000a900473ffffffffffffffffffffffffffffffffffffffff1673ffffffffffffffffffffffffffffffffffffffff163373ffffffffffffffffffffffffffffffffffffffff1614610412576040517f08c379a000000000000000000000000000000000000000000000000000000000815260040161040990610fbe565b60405180910390fd5b80600160008473ffffffffffffffffffffffffffffffffffffffff1673ffffffffffffffffffffffffffffffffffffffff1681526020019081526020016000208190555060008111156104bc576001600260008473ffffffffffffffffffffffffffffffffffffffff1673ffffffffffffffffffffffffffffffffffffffff16815260200190815260200160002060006101000a81548160ff021916908315150217905550610515565b6000600260008473ffffffffffffffffffffffffffffffffffffffff1673ffffffffffffffffffffffffffffffffffffffff16815260200190815260200160002060006101000a81548160ff0219169083151502179055505b5050565b60016020528060005260406000206000915090505481565b600381565b60008054906101000a900473ffffffffffffffffffffffffffffffffffffffff1681565b600360003373ffffffffffffffffffffffffffffffffffffffff1673ffffffffffffffffffffffffffffffffffffffff16815260200190815260200160002060009054906101000a900460ff166105e6576040517f08c379a00000000000000000000000000000000000000000000000000000000081526004016105dd90611050565b60405180910390fd5b60001515600560008373ffffffffffffffffffffffffffffffffffffffff1673ffffffffffffffffffffffffffffffffffffffff16815260200190815260200160002060003373ffffffffffffffffffffffffffffffffffffffff1673ffffffffffffffffffffffffffffffffffffffff16815260200190815260200160002060009054906101000a900460ff161515146106b6576040517f08c379a00000000000000000000000000000000000000000000000000000000081526004016106ad906110bc565b60405180910390fd5b600460009054906101000a900473ffffffffffffffffffffffffffffffffffffffff1673ffffffffffffffffffffffffffffffffffffffff168173ffffffffffffffffffffffffffffffffffffffff16146107555780600460006101000a81548173ffffffffffffffffffffffffffffffffffffffff021916908373ffffffffffffffffffffffffffffffffffffffff16021790555060006006819055505b600660008154809291906107689061110b565b919050555060036006541061081c57600460009054906101000a900473ffffffffffffffffffffffffffffffffffffffff166000806101000a81548173ffffffffffffffffffffffffffffffffffffffff021916908373ffffffffffffffffffffffffffffffffffffffff1602179055506000600460006101000a81548173ffffffffffffffffffffffffffffffffffffffff021916908373ffffffffffffffffffffffffffffffffffffffff1602179055505b50565b606060008054906101000a900473ffffffffffffffffffffffffffffffffffffffff1673ffffffffffffffffffffffffffffffffffffffff163373ffffffffffffffffffffffffffffffffffffffff16146109d95782600160003373ffffffffffffffffffffffffffffffffffffffff1673ffffffffffffffffffffffffffffffffffffffff1681526020019081526020016000205410156108f6576040517f08c379a00000000000000000000000000000000000000000000000000000000081526004016108ed906111c5565b60405180910390fd5b600260003373ffffffffffffffffffffffffffffffffffffffff1673ffffffffffffffffffffffffffffffffffffffff16815260200190815260200160002060009054906101000a900460ff16610982576040517f08c379a00000000000000000000000000000000000000000000000000000000081526004016109799061127d565b60405180910390fd5b82600160003373ffffffffffffffffffffffffffffffffffffffff1673ffffffffffffffffffffffffffffffffffffffff16815260200190815260200160002060008282546109d1919061129d565b925050819055505b6000808573ffffffffffffffffffffffffffffffffffffffff168585604051610a02919061130d565b60006040518083038185875af1925050503d8060008114610a3f576040519150601f19603f3d011682016040523d82523d6000602084013e610a44565b606091505b509150915081610a89576040517f08c379a0000000000000000000000000000000000000000000000000000000008152600401610a8090611396565b60405180910390fd5b80925050509392505050565b6000604051905090565b600080fd5b600080fd5b600073ffffffffffffffffffffffffffffffffffffffff82169050919050565b6000610ad482610aa9565b9050919050565b610ae481610ac9565b8114610aef57600080fd5b50565b600081359050610b0181610adb565b92915050565b600060208284031215610b1d57610b1c610a9f565b5b6000610b2b84828501610af2565b91505092915050565b60008115159050919050565b610b4981610b34565b82525050565b6000602082019050610b646000830184610b40565b92915050565b610b7381610b34565b8114610b7e57600080fd5b50565b600081359050610b9081610b6a565b92915050565b60008060408385031215610bad57610bac610a9f565b5b6000610bbb85828601610af2565b9250506020610bcc85828601610b81565b9150509250929050565b6000819050919050565b610be981610bd6565b8114610bf457600080fd5b50565b600081359050610c0681610be0565b92915050565b60008060408385031215610c2357610c22610a9f565b5b6000610c3185828601610af2565b9250506020610c4285828601610bf7565b9150509250929050565b610c5581610bd6565b82525050565b6000602082019050610c706000830184610c4c565b92915050565b6000610c8182610aa9565b9050919050565b610c9181610c76565b82525050565b6000602082019050610cac6000830184610c88565b92915050565b610cbb81610c76565b8114610cc657600080fd5b50565b600081359050610cd881610cb2565b92915050565b600060208284031215610cf457610cf3610a9f565b5b6000610d0284828501610cc9565b91505092915050565b600080fd5b600080fd5b6000601f19601f8301169050919050565b7f4e487b7100000000000000000000000000000000000000000000000000000000600052604160045260246000fd5b610d5e82610d15565b810181811067ffffffffffffffff82111715610d7d57610d7c610d26565b5b80604052505050565b6000610d90610a95565b9050610d9c8282610d55565b919050565b600067ffffffffffffffff821115610dbc57610dbb610d26565b5b610dc582610d15565b9050602081019050919050565b82818337600083830152505050565b6000610df4610def84610da1565b610d86565b905082815260208101848484011115610e1057610e0f610d10565b5b610e1b848285610dd2565b509392505050565b600082601f830112610e3857610e37610d0b565b5b8135610e48848260208601610de1565b91505092915050565b600080600060608486031215610e6a57610e69610a9f565b5b6000610e7886828701610cc9565b9350506020610e8986828701610bf7565b925050604084013567ffffffffffffffff811115610eaa57610ea9610aa4565b5b610eb686828701610e23565b9150509250925092565b600081519050919050565b600082825260208201905092915050565b60005b83811015610efa578082015181840152602081019050610edf565b60008484015250505050565b6000610f1182610ec0565b610f1b8185610ecb565b9350610f2b818560208601610edc565b610f3481610d15565b840191505092915050565b60006020820190508181036000830152610f598184610f06565b905092915050565b600082825260208201905092915050565b7f596f7520617265206e6f7420746865206f776e65722c2061626f7274696e6700600082015250565b6000610fa8601f83610f61565b9150610fb382610f72565b602082019050919050565b60006020820190508181036000830152610fd781610f9b565b9050919050565b7f596f7520617265206e6f74206120677561726469616e206f662074686973207760008201527f616c6c65742c2061626f7274696e670000000000000000000000000000000000602082015250565b600061103a602f83610f61565b915061104582610fde565b604082019050919050565b600060208201905081810360008301526110698161102d565b9050919050565b7f596f75206861766520616c726561647920766f7465642c2061626f7274696e67600082015250565b60006110a6602083610f61565b91506110b182611070565b602082019050919050565b600060208201905081810360008301526110d581611099565b9050919050565b7f4e487b7100000000000000000000000000000000000000000000000000000000600052601160045260246000fd5b600061111682610bd6565b91507fffffffffffffffffffffffffffffffffffffffffffffffffffffffffffffffff8203611148576111476110dc565b5b600182019050919050565b7f596f752061726520747279696e6720746f2073656e64206d6f7265207468616e60008201527f20796f752061726520616c6c6f77656420746f2c2061626f7274696e67000000602082015250565b60006111af603d83610f61565b91506111ba82611153565b604082019050919050565b600060208201905081810360008301526111de816111a2565b9050919050565b7f596f7520617265206e6f7420616c6c6f77656420746f2073656e6420616e797460008201527f68696e672066726f6d207468697320736d61727420636f6e74726163742c206160208201527f626f7274696e6700000000000000000000000000000000000000000000000000604082015250565b6000611267604783610f61565b9150611272826111e5565b606082019050919050565b600060208201905081810360008301526112968161125a565b9050919050565b60006112a882610bd6565b91506112b383610bd6565b92508282039050818111156112cb576112ca6110dc565b5b92915050565b600081905092915050565b60006112e782610ec0565b6112f181856112d1565b9350611301818560208601610edc565b80840191505092915050565b600061131982846112dc565b915081905092915050565b7f41626f7274696e672c2063616c6c20776173206e6f742073756363657373667560008201527f6c00000000000000000000000000000000000000000000000000000000000000602082015250565b6000611380602183610f61565b915061138b82611324565b604082019050919050565b600060208201905081810360008301526113af81611373565b905091905056fea2646970667358221220fb9fda818c1ab281f413b63dac440b525d56f65b5a8b4af11201c22c609b3af664736f6c63430008100033",
					"opcodes": "PUSH1 0x80 PUSH1 0x40 MSTORE CALLVALUE DUP1 ISZERO PUSH2 0x10 JUMPI PUSH1 0x0 DUP1 REVERT JUMPDEST POP CALLER PUSH1 0x0 DUP1 PUSH2 0x100 EXP DUP2 SLOAD DUP2 PUSH20 0xFFFFFFFFFFFFFFFFFFFFFFFFFFFFFFFFFFFFFFFF MUL NOT AND SWAP1 DUP4 PUSH20 0xFFFFFFFFFFFFFFFFFFFFFFFFFFFFFFFFFFFFFFFF AND MUL OR SWAP1 SSTORE POP PUSH2 0x13EC DUP1 PUSH2 0x60 PUSH1 0x0 CODECOPY PUSH1 0x0 RETURN INVALID PUSH1 0x80 PUSH1 0x40 MSTORE PUSH1 0x4 CALLDATASIZE LT PUSH2 0x8A JUMPI PUSH1 0x0 CALLDATALOAD PUSH1 0xE0 SHR DUP1 PUSH4 0x3E5BEAB9 GT PUSH2 0x59 JUMPI DUP1 PUSH4 0x3E5BEAB9 EQ PUSH2 0x162 JUMPI DUP1 PUSH4 0x83012BE1 EQ PUSH2 0x19F JUMPI DUP1 PUSH4 0x8DA5CB5B EQ PUSH2 0x1CA JUMPI DUP1 PUSH4 0xB1F8100D EQ PUSH2 0x1F5 JUMPI DUP1 PUSH4 0xBE45FD62 EQ PUSH2 0x21E JUMPI PUSH2 0x91 JUMP JUMPDEST DUP1 PUSH4 0x633B14A EQ PUSH2 0x96 JUMPI DUP1 PUSH4 0xBC605AD EQ PUSH2 0xD3 JUMPI DUP1 PUSH4 0x2B8A1C5A EQ PUSH2 0x110 JUMPI DUP1 PUSH4 0x310EC4A7 EQ PUSH2 0x139 JUMPI PUSH2 0x91 JUMP JUMPDEST CALLDATASIZE PUSH2 0x91 JUMPI STOP JUMPDEST PUSH1 0x0 DUP1 REVERT JUMPDEST CALLVALUE DUP1 ISZERO PUSH2 0xA2 JUMPI PUSH1 0x0 DUP1 REVERT JUMPDEST POP PUSH2 0xBD PUSH1 0x4 DUP1 CALLDATASIZE SUB DUP2 ADD SWAP1 PUSH2 0xB8 SWAP2 SWAP1 PUSH2 0xB07 JUMP JUMPDEST PUSH2 0x25B JUMP JUMPDEST PUSH1 0x40 MLOAD PUSH2 0xCA SWAP2 SWAP1 PUSH2 0xB4F JUMP JUMPDEST PUSH1 0x40 MLOAD DUP1 SWAP2 SUB SWAP1 RETURN JUMPDEST CALLVALUE DUP1 ISZERO PUSH2 0xDF JUMPI PUSH1 0x0 DUP1 REVERT JUMPDEST POP PUSH2 0xFA PUSH1 0x4 DUP1 CALLDATASIZE SUB DUP2 ADD SWAP1 PUSH2 0xF5 SWAP2 SWAP1 PUSH2 0xB07 JUMP JUMPDEST PUSH2 0x27B JUMP JUMPDEST PUSH1 0x40 MLOAD PUSH2 0x107 SWAP2 SWAP1 PUSH2 0xB4F JUMP JUMPDEST PUSH1 0x40 MLOAD DUP1 SWAP2 SUB SWAP1 RETURN JUMPDEST CALLVALUE DUP1 ISZERO PUSH2 0x11C JUMPI PUSH1 0x0 DUP1 REVERT JUMPDEST POP PUSH2 0x137 PUSH1 0x4 DUP1 CALLDATASIZE SUB DUP2 ADD SWAP1 PUSH2 0x132 SWAP2 SWAP1 PUSH2 0xB96 JUMP JUMPDEST PUSH2 0x29B JUMP JUMPDEST STOP JUMPDEST CALLVALUE DUP1 ISZERO PUSH2 0x145 JUMPI PUSH1 0x0 DUP1 REVERT JUMPDEST POP PUSH2 0x160 PUSH1 0x4 DUP1 CALLDATASIZE SUB DUP2 ADD SWAP1 PUSH2 0x15B SWAP2 SWAP1 PUSH2 0xC0C JUMP JUMPDEST PUSH2 0x384 JUMP JUMPDEST STOP JUMPDEST CALLVALUE DUP1 ISZERO PUSH2 0x16E JUMPI PUSH1 0x0 DUP1 REVERT JUMPDEST POP PUSH2 0x189 PUSH1 0x4 DUP1 CALLDATASIZE SUB DUP2 ADD SWAP1 PUSH2 0x184 SWAP2 SWAP1 PUSH2 0xB07 JUMP JUMPDEST PUSH2 0x519 JUMP JUMPDEST PUSH1 0x40 MLOAD PUSH2 0x196 SWAP2 SWAP1 PUSH2 0xC5B JUMP JUMPDEST PUSH1 0x40 MLOAD DUP1 SWAP2 SUB SWAP1 RETURN JUMPDEST CALLVALUE DUP1 ISZERO PUSH2 0x1AB JUMPI PUSH1 0x0 DUP1 REVERT JUMPDEST POP PUSH2 0x1B4 PUSH2 0x531 JUMP JUMPDEST PUSH1 0x40 MLOAD PUSH2 0x1C1 SWAP2 SWAP1 PUSH2 0xC5B JUMP JUMPDEST PUSH1 0x40 MLOAD DUP1 SWAP2 SUB SWAP1 RETURN JUMPDEST CALLVALUE DUP1 ISZERO PUSH2 0x1D6 JUMPI PUSH1 0x0 DUP1 REVERT JUMPDEST POP PUSH2 0x1DF PUSH2 0x536 JUMP JUMPDEST PUSH1 0x40 MLOAD PUSH2 0x1EC SWAP2 SWAP1 PUSH2 0xC97 JUMP JUMPDEST PUSH1 0x40 MLOAD DUP1 SWAP2 SUB SWAP1 RETURN JUMPDEST CALLVALUE DUP1 ISZERO PUSH2 0x201 JUMPI PUSH1 0x0 DUP1 REVERT JUMPDEST POP PUSH2 0x21C PUSH1 0x4 DUP1 CALLDATASIZE SUB DUP2 ADD SWAP1 PUSH2 0x217 SWAP2 SWAP1 PUSH2 0xCDE JUMP JUMPDEST PUSH2 0x55A JUMP JUMPDEST STOP JUMPDEST CALLVALUE DUP1 ISZERO PUSH2 0x22A JUMPI PUSH1 0x0 DUP1 REVERT JUMPDEST POP PUSH2 0x245 PUSH1 0x4 DUP1 CALLDATASIZE SUB DUP2 ADD SWAP1 PUSH2 0x240 SWAP2 SWAP1 PUSH2 0xE51 JUMP JUMPDEST PUSH2 0x81F JUMP JUMPDEST PUSH1 0x40 MLOAD PUSH2 0x252 SWAP2 SWAP1 PUSH2 0xF3F JUMP JUMPDEST PUSH1 0x40 MLOAD DUP1 SWAP2 SUB SWAP1 RETURN JUMPDEST PUSH1 0x3 PUSH1 0x20 MSTORE DUP1 PUSH1 0x0 MSTORE PUSH1 0x40 PUSH1 0x0 KECCAK256 PUSH1 0x0 SWAP2 POP SLOAD SWAP1 PUSH2 0x100 EXP SWAP1 DIV PUSH1 0xFF AND DUP2 JUMP JUMPDEST PUSH1 0x2 PUSH1 0x20 MSTORE DUP1 PUSH1 0x0 MSTORE PUSH1 0x40 PUSH1 0x0 KECCAK256 PUSH1 0x0 SWAP2 POP SLOAD SWAP1 PUSH2 0x100 EXP SWAP1 DIV PUSH1 0xFF AND DUP2 JUMP JUMPDEST PUSH1 0x0 DUP1 SLOAD SWAP1 PUSH2 0x100 EXP SWAP1 DIV PUSH20 0xFFFFFFFFFFFFFFFFFFFFFFFFFFFFFFFFFFFFFFFF AND PUSH20 0xFFFFFFFFFFFFFFFFFFFFFFFFFFFFFFFFFFFFFFFF AND CALLER PUSH20 0xFFFFFFFFFFFFFFFFFFFFFFFFFFFFFFFFFFFFFFFF AND EQ PUSH2 0x329 JUMPI PUSH1 0x40 MLOAD PUSH32 0x8C379A000000000000000000000000000000000000000000000000000000000 DUP2 MSTORE PUSH1 0x4 ADD PUSH2 0x320 SWAP1 PUSH2 0xFBE JUMP JUMPDEST PUSH1 0x40 MLOAD DUP1 SWAP2 SUB SWAP1 REVERT JUMPDEST DUP1 PUSH1 0x3 PUSH1 0x0 DUP5 PUSH20 0xFFFFFFFFFFFFFFFFFFFFFFFFFFFFFFFFFFFFFFFF AND PUSH20 0xFFFFFFFFFFFFFFFFFFFFFFFFFFFFFFFFFFFFFFFF AND DUP2 MSTORE PUSH1 0x20 ADD SWAP1 DUP2 MSTORE PUSH1 0x20 ADD PUSH1 0x0 KECCAK256 PUSH1 0x0 PUSH2 0x100 EXP DUP2 SLOAD DUP2 PUSH1 0xFF MUL NOT AND SWAP1 DUP4 ISZERO ISZERO MUL OR SWAP1 SSTORE POP POP POP JUMP JUMPDEST PUSH1 0x0 DUP1 SLOAD SWAP1 PUSH2 0x100 EXP SWAP1 DIV PUSH20 0xFFFFFFFFFFFFFFFFFFFFFFFFFFFFFFFFFFFFFFFF AND PUSH20 0xFFFFFFFFFFFFFFFFFFFFFFFFFFFFFFFFFFFFFFFF AND CALLER PUSH20 0xFFFFFFFFFFFFFFFFFFFFFFFFFFFFFFFFFFFFFFFF AND EQ PUSH2 0x412 JUMPI PUSH1 0x40 MLOAD PUSH32 0x8C379A000000000000000000000000000000000000000000000000000000000 DUP2 MSTORE PUSH1 0x4 ADD PUSH2 0x409 SWAP1 PUSH2 0xFBE JUMP JUMPDEST PUSH1 0x40 MLOAD DUP1 SWAP2 SUB SWAP1 REVERT JUMPDEST DUP1 PUSH1 0x1 PUSH1 0x0 DUP5 PUSH20 0xFFFFFFFFFFFFFFFFFFFFFFFFFFFFFFFFFFFFFFFF AND PUSH20 0xFFFFFFFFFFFFFFFFFFFFFFFFFFFFFFFFFFFFFFFF AND DUP2 MSTORE PUSH1 0x20 ADD SWAP1 DUP2 MSTORE PUSH1 0x20 ADD PUSH1 0x0 KECCAK256 DUP2 SWAP1 SSTORE POP PUSH1 0x0 DUP2 GT ISZERO PUSH2 0x4BC JUMPI PUSH1 0x1 PUSH1 0x2 PUSH1 0x0 DUP5 PUSH20 0xFFFFFFFFFFFFFFFFFFFFFFFFFFFFFFFFFFFFFFFF AND PUSH20 0xFFFFFFFFFFFFFFFFFFFFFFFFFFFFFFFFFFFFFFFF AND DUP2 MSTORE PUSH1 0x20 ADD SWAP1 DUP2 MSTORE PUSH1 0x20 ADD PUSH1 0x0 KECCAK256 PUSH1 0x0 PUSH2 0x100 EXP DUP2 SLOAD DUP2 PUSH1 0xFF MUL NOT AND SWAP1 DUP4 ISZERO ISZERO MUL OR SWAP1 SSTORE POP PUSH2 0x515 JUMP JUMPDEST PUSH1 0x0 PUSH1 0x2 PUSH1 0x0 DUP5 PUSH20 0xFFFFFFFFFFFFFFFFFFFFFFFFFFFFFFFFFFFFFFFF AND PUSH20 0xFFFFFFFFFFFFFFFFFFFFFFFFFFFFFFFFFFFFFFFF AND DUP2 MSTORE PUSH1 0x20 ADD SWAP1 DUP2 MSTORE PUSH1 0x20 ADD PUSH1 0x0 KECCAK256 PUSH1 0x0 PUSH2 0x100 EXP DUP2 SLOAD DUP2 PUSH1 0xFF MUL NOT AND SWAP1 DUP4 ISZERO ISZERO MUL OR SWAP1 SSTORE POP JUMPDEST POP POP JUMP JUMPDEST PUSH1 0x1 PUSH1 0x20 MSTORE DUP1 PUSH1 0x0 MSTORE PUSH1 0x40 PUSH1 0x0 KECCAK256 PUSH1 0x0 SWAP2 POP SWAP1 POP SLOAD DUP2 JUMP JUMPDEST PUSH1 0x3 DUP2 JUMP JUMPDEST PUSH1 0x0 DUP1 SLOAD SWAP1 PUSH2 0x100 EXP SWAP1 DIV PUSH20 0xFFFFFFFFFFFFFFFFFFFFFFFFFFFFFFFFFFFFFFFF AND DUP2 JUMP JUMPDEST PUSH1 0x3 PUSH1 0x0 CALLER PUSH20 0xFFFFFFFFFFFFFFFFFFFFFFFFFFFFFFFFFFFFFFFF AND PUSH20 0xFFFFFFFFFFFFFFFFFFFFFFFFFFFFFFFFFFFFFFFF AND DUP2 MSTORE PUSH1 0x20 ADD SWAP1 DUP2 MSTORE PUSH1 0x20 ADD PUSH1 0x0 KECCAK256 PUSH1 0x0 SWAP1 SLOAD SWAP1 PUSH2 0x100 EXP SWAP1 DIV PUSH1 0xFF AND PUSH2 0x5E6 JUMPI PUSH1 0x40 MLOAD PUSH32 0x8C379A000000000000000000000000000000000000000000000000000000000 DUP2 MSTORE PUSH1 0x4 ADD PUSH2 0x5DD SWAP1 PUSH2 0x1050 JUMP JUMPDEST PUSH1 0x40 MLOAD DUP1 SWAP2 SUB SWAP1 REVERT JUMPDEST PUSH1 0x0 ISZERO ISZERO PUSH1 0x5 PUSH1 0x0 DUP4 PUSH20 0xFFFFFFFFFFFFFFFFFFFFFFFFFFFFFFFFFFFFFFFF AND PUSH20 0xFFFFFFFFFFFFFFFFFFFFFFFFFFFFFFFFFFFFFFFF AND DUP2 MSTORE PUSH1 0x20 ADD SWAP1 DUP2 MSTORE PUSH1 0x20 ADD PUSH1 0x0 KECCAK256 PUSH1 0x0 CALLER PUSH20 0xFFFFFFFFFFFFFFFFFFFFFFFFFFFFFFFFFFFFFFFF AND PUSH20 0xFFFFFFFFFFFFFFFFFFFFFFFFFFFFFFFFFFFFFFFF AND DUP2 MSTORE PUSH1 0x20 ADD SWAP1 DUP2 MSTORE PUSH1 0x20 ADD PUSH1 0x0 KECCAK256 PUSH1 0x0 SWAP1 SLOAD SWAP1 PUSH2 0x100 EXP SWAP1 DIV PUSH1 0xFF AND ISZERO ISZERO EQ PUSH2 0x6B6 JUMPI PUSH1 0x40 MLOAD PUSH32 0x8C379A000000000000000000000000000000000000000000000000000000000 DUP2 MSTORE PUSH1 0x4 ADD PUSH2 0x6AD SWAP1 PUSH2 0x10BC JUMP JUMPDEST PUSH1 0x40 MLOAD DUP1 SWAP2 SUB SWAP1 REVERT JUMPDEST PUSH1 0x4 PUSH1 0x0 SWAP1 SLOAD SWAP1 PUSH2 0x100 EXP SWAP1 DIV PUSH20 0xFFFFFFFFFFFFFFFFFFFFFFFFFFFFFFFFFFFFFFFF AND PUSH20 0xFFFFFFFFFFFFFFFFFFFFFFFFFFFFFFFFFFFFFFFF AND DUP2 PUSH20 0xFFFFFFFFFFFFFFFFFFFFFFFFFFFFFFFFFFFFFFFF AND EQ PUSH2 0x755 JUMPI DUP1 PUSH1 0x4 PUSH1 0x0 PUSH2 0x100 EXP DUP2 SLOAD DUP2 PUSH20 0xFFFFFFFFFFFFFFFFFFFFFFFFFFFFFFFFFFFFFFFF MUL NOT AND SWAP1 DUP4 PUSH20 0xFFFFFFFFFFFFFFFFFFFFFFFFFFFFFFFFFFFFFFFF AND MUL OR SWAP1 SSTORE POP PUSH1 0x0 PUSH1 0x6 DUP2 SWAP1 SSTORE POP JUMPDEST PUSH1 0x6 PUSH1 0x0 DUP2 SLOAD DUP1 SWAP3 SWAP2 SWAP1 PUSH2 0x768 SWAP1 PUSH2 0x110B JUMP JUMPDEST SWAP2 SWAP1 POP SSTORE POP PUSH1 0x3 PUSH1 0x6 SLOAD LT PUSH2 0x81C JUMPI PUSH1 0x4 PUSH1 0x0 SWAP1 SLOAD SWAP1 PUSH2 0x100 EXP SWAP1 DIV PUSH20 0xFFFFFFFFFFFFFFFFFFFFFFFFFFFFFFFFFFFFFFFF AND PUSH1 0x0 DUP1 PUSH2 0x100 EXP DUP2 SLOAD DUP2 PUSH20 0xFFFFFFFFFFFFFFFFFFFFFFFFFFFFFFFFFFFFFFFF MUL NOT AND SWAP1 DUP4 PUSH20 0xFFFFFFFFFFFFFFFFFFFFFFFFFFFFFFFFFFFFFFFF AND MUL OR SWAP1 SSTORE POP PUSH1 0x0 PUSH1 0x4 PUSH1 0x0 PUSH2 0x100 EXP DUP2 SLOAD DUP2 PUSH20 0xFFFFFFFFFFFFFFFFFFFFFFFFFFFFFFFFFFFFFFFF MUL NOT AND SWAP1 DUP4 PUSH20 0xFFFFFFFFFFFFFFFFFFFFFFFFFFFFFFFFFFFFFFFF AND MUL OR SWAP1 SSTORE POP JUMPDEST POP JUMP JUMPDEST PUSH1 0x60 PUSH1 0x0 DUP1 SLOAD SWAP1 PUSH2 0x100 EXP SWAP1 DIV PUSH20 0xFFFFFFFFFFFFFFFFFFFFFFFFFFFFFFFFFFFFFFFF AND PUSH20 0xFFFFFFFFFFFFFFFFFFFFFFFFFFFFFFFFFFFFFFFF AND CALLER PUSH20 0xFFFFFFFFFFFFFFFFFFFFFFFFFFFFFFFFFFFFFFFF AND EQ PUSH2 0x9D9 JUMPI DUP3 PUSH1 0x1 PUSH1 0x0 CALLER PUSH20 0xFFFFFFFFFFFFFFFFFFFFFFFFFFFFFFFFFFFFFFFF AND PUSH20 0xFFFFFFFFFFFFFFFFFFFFFFFFFFFFFFFFFFFFFFFF AND DUP2 MSTORE PUSH1 0x20 ADD SWAP1 DUP2 MSTORE PUSH1 0x20 ADD PUSH1 0x0 KECCAK256 SLOAD LT ISZERO PUSH2 0x8F6 JUMPI PUSH1 0x40 MLOAD PUSH32 0x8C379A000000000000000000000000000000000000000000000000000000000 DUP2 MSTORE PUSH1 0x4 ADD PUSH2 0x8ED SWAP1 PUSH2 0x11C5 JUMP JUMPDEST PUSH1 0x40 MLOAD DUP1 SWAP2 SUB SWAP1 REVERT JUMPDEST PUSH1 0x2 PUSH1 0x0 CALLER PUSH20 0xFFFFFFFFFFFFFFFFFFFFFFFFFFFFFFFFFFFFFFFF AND PUSH20 0xFFFFFFFFFFFFFFFFFFFFFFFFFFFFFFFFFFFFFFFF AND DUP2 MSTORE PUSH1 0x20 ADD SWAP1 DUP2 MSTORE PUSH1 0x20 ADD PUSH1 0x0 KECCAK256 PUSH1 0x0 SWAP1 SLOAD SWAP1 PUSH2 0x100 EXP SWAP1 DIV PUSH1 0xFF AND PUSH2 0x982 JUMPI PUSH1 0x40 MLOAD PUSH32 0x8C379A000000000000000000000000000000000000000000000000000000000 DUP2 MSTORE PUSH1 0x4 ADD PUSH2 0x979 SWAP1 PUSH2 0x127D JUMP JUMPDEST PUSH1 0x40 MLOAD DUP1 SWAP2 SUB SWAP1 REVERT JUMPDEST DUP3 PUSH1 0x1 PUSH1 0x0 CALLER PUSH20 0xFFFFFFFFFFFFFFFFFFFFFFFFFFFFFFFFFFFFFFFF AND PUSH20 0xFFFFFFFFFFFFFFFFFFFFFFFFFFFFFFFFFFFFFFFF AND DUP2 MSTORE PUSH1 0x20 ADD SWAP1 DUP2 MSTORE PUSH1 0x20 ADD PUSH1 0x0 KECCAK256 PUSH1 0x0 DUP3 DUP3 SLOAD PUSH2 0x9D1 SWAP2 SWAP1 PUSH2 0x129D JUMP JUMPDEST SWAP3 POP POP DUP2 SWAP1 SSTORE POP JUMPDEST PUSH1 0x0 DUP1 DUP6 PUSH20 0xFFFFFFFFFFFFFFFFFFFFFFFFFFFFFFFFFFFFFFFF AND DUP6 DUP6 PUSH1 0x40 MLOAD PUSH2 0xA02 SWAP2 SWAP1 PUSH2 0x130D JUMP JUMPDEST PUSH1 0x0 PUSH1 0x40 MLOAD DUP1 DUP4 SUB DUP2 DUP6 DUP8 GAS CALL SWAP3 POP POP POP RETURNDATASIZE DUP1 PUSH1 0x0 DUP2 EQ PUSH2 0xA3F JUMPI PUSH1 0x40 MLOAD SWAP2 POP PUSH1 0x1F NOT PUSH1 0x3F RETURNDATASIZE ADD AND DUP3 ADD PUSH1 0x40 MSTORE RETURNDATASIZE DUP3 MSTORE RETURNDATASIZE PUSH1 0x0 PUSH1 0x20 DUP5 ADD RETURNDATACOPY PUSH2 0xA44 JUMP JUMPDEST PUSH1 0x60 SWAP2 POP JUMPDEST POP SWAP2 POP SWAP2 POP DUP2 PUSH2 0xA89 JUMPI PUSH1 0x40 MLOAD PUSH32 0x8C379A000000000000000000000000000000000000000000000000000000000 DUP2 MSTORE PUSH1 0x4 ADD PUSH2 0xA80 SWAP1 PUSH2 0x1396 JUMP JUMPDEST PUSH1 0x40 MLOAD DUP1 SWAP2 SUB SWAP1 REVERT JUMPDEST DUP1 SWAP3 POP POP POP SWAP4 SWAP3 POP POP POP JUMP JUMPDEST PUSH1 0x0 PUSH1 0x40 MLOAD SWAP1 POP SWAP1 JUMP JUMPDEST PUSH1 0x0 DUP1 REVERT JUMPDEST PUSH1 0x0 DUP1 REVERT JUMPDEST PUSH1 0x0 PUSH20 0xFFFFFFFFFFFFFFFFFFFFFFFFFFFFFFFFFFFFFFFF DUP3 AND SWAP1 POP SWAP2 SWAP1 POP JUMP JUMPDEST PUSH1 0x0 PUSH2 0xAD4 DUP3 PUSH2 0xAA9 JUMP JUMPDEST SWAP1 POP SWAP2 SWAP1 POP JUMP JUMPDEST PUSH2 0xAE4 DUP2 PUSH2 0xAC9 JUMP JUMPDEST DUP2 EQ PUSH2 0xAEF JUMPI PUSH1 0x0 DUP1 REVERT JUMPDEST POP JUMP JUMPDEST PUSH1 0x0 DUP2 CALLDATALOAD SWAP1 POP PUSH2 0xB01 DUP2 PUSH2 0xADB JUMP JUMPDEST SWAP3 SWAP2 POP POP JUMP JUMPDEST PUSH1 0x0 PUSH1 0x20 DUP3 DUP5 SUB SLT ISZERO PUSH2 0xB1D JUMPI PUSH2 0xB1C PUSH2 0xA9F JUMP JUMPDEST JUMPDEST PUSH1 0x0 PUSH2 0xB2B DUP5 DUP3 DUP6 ADD PUSH2 0xAF2 JUMP JUMPDEST SWAP2 POP POP SWAP3 SWAP2 POP POP JUMP JUMPDEST PUSH1 0x0 DUP2 ISZERO ISZERO SWAP1 POP SWAP2 SWAP1 POP JUMP JUMPDEST PUSH2 0xB49 DUP2 PUSH2 0xB34 JUMP JUMPDEST DUP3 MSTORE POP POP JUMP JUMPDEST PUSH1 0x0 PUSH1 0x20 DUP3 ADD SWAP1 POP PUSH2 0xB64 PUSH1 0x0 DUP4 ADD DUP5 PUSH2 0xB40 JUMP JUMPDEST SWAP3 SWAP2 POP POP JUMP JUMPDEST PUSH2 0xB73 DUP2 PUSH2 0xB34 JUMP JUMPDEST DUP2 EQ PUSH2 0xB7E JUMPI PUSH1 0x0 DUP1 REVERT JUMPDEST POP JUMP JUMPDEST PUSH1 0x0 DUP2 CALLDATALOAD SWAP1 POP PUSH2 0xB90 DUP2 PUSH2 0xB6A JUMP JUMPDEST SWAP3 SWAP2 POP POP JUMP JUMPDEST PUSH1 0x0 DUP1 PUSH1 0x40 DUP4 DUP6 SUB SLT ISZERO PUSH2 0xBAD JUMPI PUSH2 0xBAC PUSH2 0xA9F JUMP JUMPDEST JUMPDEST PUSH1 0x0 PUSH2 0xBBB DUP6 DUP3 DUP7 ADD PUSH2 0xAF2 JUMP JUMPDEST SWAP3 POP POP PUSH1 0x20 PUSH2 0xBCC DUP6 DUP3 DUP7 ADD PUSH2 0xB81 JUMP JUMPDEST SWAP2 POP POP SWAP3 POP SWAP3 SWAP1 POP JUMP JUMPDEST PUSH1 0x0 DUP2 SWAP1 POP SWAP2 SWAP1 POP JUMP JUMPDEST PUSH2 0xBE9 DUP2 PUSH2 0xBD6 JUMP JUMPDEST DUP2 EQ PUSH2 0xBF4 JUMPI PUSH1 0x0 DUP1 REVERT JUMPDEST POP JUMP JUMPDEST PUSH1 0x0 DUP2 CALLDATALOAD SWAP1 POP PUSH2 0xC06 DUP2 PUSH2 0xBE0 JUMP JUMPDEST SWAP3 SWAP2 POP POP JUMP JUMPDEST PUSH1 0x0 DUP1 PUSH1 0x40 DUP4 DUP6 SUB SLT ISZERO PUSH2 0xC23 JUMPI PUSH2 0xC22 PUSH2 0xA9F JUMP JUMPDEST JUMPDEST PUSH1 0x0 PUSH2 0xC31 DUP6 DUP3 DUP7 ADD PUSH2 0xAF2 JUMP JUMPDEST SWAP3 POP POP PUSH1 0x20 PUSH2 0xC42 DUP6 DUP3 DUP7 ADD PUSH2 0xBF7 JUMP JUMPDEST SWAP2 POP POP SWAP3 POP SWAP3 SWAP1 POP JUMP JUMPDEST PUSH2 0xC55 DUP2 PUSH2 0xBD6 JUMP JUMPDEST DUP3 MSTORE POP POP JUMP JUMPDEST PUSH1 0x0 PUSH1 0x20 DUP3 ADD SWAP1 POP PUSH2 0xC70 PUSH1 0x0 DUP4 ADD DUP5 PUSH2 0xC4C JUMP JUMPDEST SWAP3 SWAP2 POP POP JUMP JUMPDEST PUSH1 0x0 PUSH2 0xC81 DUP3 PUSH2 0xAA9 JUMP JUMPDEST SWAP1 POP SWAP2 SWAP1 POP JUMP JUMPDEST PUSH2 0xC91 DUP2 PUSH2 0xC76 JUMP JUMPDEST DUP3 MSTORE POP POP JUMP JUMPDEST PUSH1 0x0 PUSH1 0x20 DUP3 ADD SWAP1 POP PUSH2 0xCAC PUSH1 0x0 DUP4 ADD DUP5 PUSH2 0xC88 JUMP JUMPDEST SWAP3 SWAP2 POP POP JUMP JUMPDEST PUSH2 0xCBB DUP2 PUSH2 0xC76 JUMP JUMPDEST DUP2 EQ PUSH2 0xCC6 JUMPI PUSH1 0x0 DUP1 REVERT JUMPDEST POP JUMP JUMPDEST PUSH1 0x0 DUP2 CALLDATALOAD SWAP1 POP PUSH2 0xCD8 DUP2 PUSH2 0xCB2 JUMP JUMPDEST SWAP3 SWAP2 POP POP JUMP JUMPDEST PUSH1 0x0 PUSH1 0x20 DUP3 DUP5 SUB SLT ISZERO PUSH2 0xCF4 JUMPI PUSH2 0xCF3 PUSH2 0xA9F JUMP JUMPDEST JUMPDEST PUSH1 0x0 PUSH2 0xD02 DUP5 DUP3 DUP6 ADD PUSH2 0xCC9 JUMP JUMPDEST SWAP2 POP POP SWAP3 SWAP2 POP POP JUMP JUMPDEST PUSH1 0x0 DUP1 REVERT JUMPDEST PUSH1 0x0 DUP1 REVERT JUMPDEST PUSH1 0x0 PUSH1 0x1F NOT PUSH1 0x1F DUP4 ADD AND SWAP1 POP SWAP2 SWAP1 POP JUMP JUMPDEST PUSH32 0x4E487B7100000000000000000000000000000000000000000000000000000000 PUSH1 0x0 MSTORE PUSH1 0x41 PUSH1 0x4 MSTORE PUSH1 0x24 PUSH1 0x0 REVERT JUMPDEST PUSH2 0xD5E DUP3 PUSH2 0xD15 JUMP JUMPDEST DUP2 ADD DUP2 DUP2 LT PUSH8 0xFFFFFFFFFFFFFFFF DUP3 GT OR ISZERO PUSH2 0xD7D JUMPI PUSH2 0xD7C PUSH2 0xD26 JUMP JUMPDEST JUMPDEST DUP1 PUSH1 0x40 MSTORE POP POP POP JUMP JUMPDEST PUSH1 0x0 PUSH2 0xD90 PUSH2 0xA95 JUMP JUMPDEST SWAP1 POP PUSH2 0xD9C DUP3 DUP3 PUSH2 0xD55 JUMP JUMPDEST SWAP2 SWAP1 POP JUMP JUMPDEST PUSH1 0x0 PUSH8 0xFFFFFFFFFFFFFFFF DUP3 GT ISZERO PUSH2 0xDBC JUMPI PUSH2 0xDBB PUSH2 0xD26 JUMP JUMPDEST JUMPDEST PUSH2 0xDC5 DUP3 PUSH2 0xD15 JUMP JUMPDEST SWAP1 POP PUSH1 0x20 DUP2 ADD SWAP1 POP SWAP2 SWAP1 POP JUMP JUMPDEST DUP3 DUP2 DUP4 CALLDATACOPY PUSH1 0x0 DUP4 DUP4 ADD MSTORE POP POP POP JUMP JUMPDEST PUSH1 0x0 PUSH2 0xDF4 PUSH2 0xDEF DUP5 PUSH2 0xDA1 JUMP JUMPDEST PUSH2 0xD86 JUMP JUMPDEST SWAP1 POP DUP3 DUP2 MSTORE PUSH1 0x20 DUP2 ADD DUP5 DUP5 DUP5 ADD GT ISZERO PUSH2 0xE10 JUMPI PUSH2 0xE0F PUSH2 0xD10 JUMP JUMPDEST JUMPDEST PUSH2 0xE1B DUP5 DUP3 DUP6 PUSH2 0xDD2 JUMP JUMPDEST POP SWAP4 SWAP3 POP POP POP JUMP JUMPDEST PUSH1 0x0 DUP3 PUSH1 0x1F DUP4 ADD SLT PUSH2 0xE38 JUMPI PUSH2 0xE37 PUSH2 0xD0B JUMP JUMPDEST JUMPDEST DUP2 CALLDATALOAD PUSH2 0xE48 DUP5 DUP3 PUSH1 0x20 DUP7 ADD PUSH2 0xDE1 JUMP JUMPDEST SWAP2 POP POP SWAP3 SWAP2 POP POP JUMP JUMPDEST PUSH1 0x0 DUP1 PUSH1 0x0 PUSH1 0x60 DUP5 DUP7 SUB SLT ISZERO PUSH2 0xE6A JUMPI PUSH2 0xE69 PUSH2 0xA9F JUMP JUMPDEST JUMPDEST PUSH1 0x0 PUSH2 0xE78 DUP7 DUP3 DUP8 ADD PUSH2 0xCC9 JUMP JUMPDEST SWAP4 POP POP PUSH1 0x20 PUSH2 0xE89 DUP7 DUP3 DUP8 ADD PUSH2 0xBF7 JUMP JUMPDEST SWAP3 POP POP PUSH1 0x40 DUP5 ADD CALLDATALOAD PUSH8 0xFFFFFFFFFFFFFFFF DUP2 GT ISZERO PUSH2 0xEAA JUMPI PUSH2 0xEA9 PUSH2 0xAA4 JUMP JUMPDEST JUMPDEST PUSH2 0xEB6 DUP7 DUP3 DUP8 ADD PUSH2 0xE23 JUMP JUMPDEST SWAP2 POP POP SWAP3 POP SWAP3 POP SWAP3 JUMP JUMPDEST PUSH1 0x0 DUP2 MLOAD SWAP1 POP SWAP2 SWAP1 POP JUMP JUMPDEST PUSH1 0x0 DUP3 DUP3 MSTORE PUSH1 0x20 DUP3 ADD SWAP1 POP SWAP3 SWAP2 POP POP JUMP JUMPDEST PUSH1 0x0 JUMPDEST DUP4 DUP2 LT ISZERO PUSH2 0xEFA JUMPI DUP1 DUP3 ADD MLOAD DUP2 DUP5 ADD MSTORE PUSH1 0x20 DUP2 ADD SWAP1 POP PUSH2 0xEDF JUMP JUMPDEST PUSH1 0x0 DUP5 DUP5 ADD MSTORE POP POP POP POP JUMP JUMPDEST PUSH1 0x0 PUSH2 0xF11 DUP3 PUSH2 0xEC0 JUMP JUMPDEST PUSH2 0xF1B DUP2 DUP6 PUSH2 0xECB JUMP JUMPDEST SWAP4 POP PUSH2 0xF2B DUP2 DUP6 PUSH1 0x20 DUP7 ADD PUSH2 0xEDC JUMP JUMPDEST PUSH2 0xF34 DUP2 PUSH2 0xD15 JUMP JUMPDEST DUP5 ADD SWAP2 POP POP SWAP3 SWAP2 POP POP JUMP JUMPDEST PUSH1 0x0 PUSH1 0x20 DUP3 ADD SWAP1 POP DUP2 DUP2 SUB PUSH1 0x0 DUP4 ADD MSTORE PUSH2 0xF59 DUP2 DUP5 PUSH2 0xF06 JUMP JUMPDEST SWAP1 POP SWAP3 SWAP2 POP POP JUMP JUMPDEST PUSH1 0x0 DUP3 DUP3 MSTORE PUSH1 0x20 DUP3 ADD SWAP1 POP SWAP3 SWAP2 POP POP JUMP JUMPDEST PUSH32 0x596F7520617265206E6F7420746865206F776E65722C2061626F7274696E6700 PUSH1 0x0 DUP3 ADD MSTORE POP JUMP JUMPDEST PUSH1 0x0 PUSH2 0xFA8 PUSH1 0x1F DUP4 PUSH2 0xF61 JUMP JUMPDEST SWAP2 POP PUSH2 0xFB3 DUP3 PUSH2 0xF72 JUMP JUMPDEST PUSH1 0x20 DUP3 ADD SWAP1 POP SWAP2 SWAP1 POP JUMP JUMPDEST PUSH1 0x0 PUSH1 0x20 DUP3 ADD SWAP1 POP DUP2 DUP2 SUB PUSH1 0x0 DUP4 ADD MSTORE PUSH2 0xFD7 DUP2 PUSH2 0xF9B JUMP JUMPDEST SWAP1 POP SWAP2 SWAP1 POP JUMP JUMPDEST PUSH32 0x596F7520617265206E6F74206120677561726469616E206F6620746869732077 PUSH1 0x0 DUP3 ADD MSTORE PUSH32 0x616C6C65742C2061626F7274696E670000000000000000000000000000000000 PUSH1 0x20 DUP3 ADD MSTORE POP JUMP JUMPDEST PUSH1 0x0 PUSH2 0x103A PUSH1 0x2F DUP4 PUSH2 0xF61 JUMP JUMPDEST SWAP2 POP PUSH2 0x1045 DUP3 PUSH2 0xFDE JUMP JUMPDEST PUSH1 0x40 DUP3 ADD SWAP1 POP SWAP2 SWAP1 POP JUMP JUMPDEST PUSH1 0x0 PUSH1 0x20 DUP3 ADD SWAP1 POP DUP2 DUP2 SUB PUSH1 0x0 DUP4 ADD MSTORE PUSH2 0x1069 DUP2 PUSH2 0x102D JUMP JUMPDEST SWAP1 POP SWAP2 SWAP1 POP JUMP JUMPDEST PUSH32 0x596F75206861766520616C726561647920766F7465642C2061626F7274696E67 PUSH1 0x0 DUP3 ADD MSTORE POP JUMP JUMPDEST PUSH1 0x0 PUSH2 0x10A6 PUSH1 0x20 DUP4 PUSH2 0xF61 JUMP JUMPDEST SWAP2 POP PUSH2 0x10B1 DUP3 PUSH2 0x1070 JUMP JUMPDEST PUSH1 0x20 DUP3 ADD SWAP1 POP SWAP2 SWAP1 POP JUMP JUMPDEST PUSH1 0x0 PUSH1 0x20 DUP3 ADD SWAP1 POP DUP2 DUP2 SUB PUSH1 0x0 DUP4 ADD MSTORE PUSH2 0x10D5 DUP2 PUSH2 0x1099 JUMP JUMPDEST SWAP1 POP SWAP2 SWAP1 POP JUMP JUMPDEST PUSH32 0x4E487B7100000000000000000000000000000000000000000000000000000000 PUSH1 0x0 MSTORE PUSH1 0x11 PUSH1 0x4 MSTORE PUSH1 0x24 PUSH1 0x0 REVERT JUMPDEST PUSH1 0x0 PUSH2 0x1116 DUP3 PUSH2 0xBD6 JUMP JUMPDEST SWAP2 POP PUSH32 0xFFFFFFFFFFFFFFFFFFFFFFFFFFFFFFFFFFFFFFFFFFFFFFFFFFFFFFFFFFFFFFFF DUP3 SUB PUSH2 0x1148 JUMPI PUSH2 0x1147 PUSH2 0x10DC JUMP JUMPDEST JUMPDEST PUSH1 0x1 DUP3 ADD SWAP1 POP SWAP2 SWAP1 POP JUMP JUMPDEST PUSH32 0x596F752061726520747279696E6720746F2073656E64206D6F7265207468616E PUSH1 0x0 DUP3 ADD MSTORE PUSH32 0x20796F752061726520616C6C6F77656420746F2C2061626F7274696E67000000 PUSH1 0x20 DUP3 ADD MSTORE POP JUMP JUMPDEST PUSH1 0x0 PUSH2 0x11AF PUSH1 0x3D DUP4 PUSH2 0xF61 JUMP JUMPDEST SWAP2 POP PUSH2 0x11BA DUP3 PUSH2 0x1153 JUMP JUMPDEST PUSH1 0x40 DUP3 ADD SWAP1 POP SWAP2 SWAP1 POP JUMP JUMPDEST PUSH1 0x0 PUSH1 0x20 DUP3 ADD SWAP1 POP DUP2 DUP2 SUB PUSH1 0x0 DUP4 ADD MSTORE PUSH2 0x11DE DUP2 PUSH2 0x11A2 JUMP JUMPDEST SWAP1 POP SWAP2 SWAP1 POP JUMP JUMPDEST PUSH32 0x596F7520617265206E6F7420616C6C6F77656420746F2073656E6420616E7974 PUSH1 0x0 DUP3 ADD MSTORE PUSH32 0x68696E672066726F6D207468697320736D61727420636F6E74726163742C2061 PUSH1 0x20 DUP3 ADD MSTORE PUSH32 0x626F7274696E6700000000000000000000000000000000000000000000000000 PUSH1 0x40 DUP3 ADD MSTORE POP JUMP JUMPDEST PUSH1 0x0 PUSH2 0x1267 PUSH1 0x47 DUP4 PUSH2 0xF61 JUMP JUMPDEST SWAP2 POP PUSH2 0x1272 DUP3 PUSH2 0x11E5 JUMP JUMPDEST PUSH1 0x60 DUP3 ADD SWAP1 POP SWAP2 SWAP1 POP JUMP JUMPDEST PUSH1 0x0 PUSH1 0x20 DUP3 ADD SWAP1 POP DUP2 DUP2 SUB PUSH1 0x0 DUP4 ADD MSTORE PUSH2 0x1296 DUP2 PUSH2 0x125A JUMP JUMPDEST SWAP1 POP SWAP2 SWAP1 POP JUMP JUMPDEST PUSH1 0x0 PUSH2 0x12A8 DUP3 PUSH2 0xBD6 JUMP JUMPDEST SWAP2 POP PUSH2 0x12B3 DUP4 PUSH2 0xBD6 JUMP JUMPDEST SWAP3 POP DUP3 DUP3 SUB SWAP1 POP DUP2 DUP2 GT ISZERO PUSH2 0x12CB JUMPI PUSH2 0x12CA PUSH2 0x10DC JUMP JUMPDEST JUMPDEST SWAP3 SWAP2 POP POP JUMP JUMPDEST PUSH1 0x0 DUP2 SWAP1 POP SWAP3 SWAP2 POP POP JUMP JUMPDEST PUSH1 0x0 PUSH2 0x12E7 DUP3 PUSH2 0xEC0 JUMP JUMPDEST PUSH2 0x12F1 DUP2 DUP6 PUSH2 0x12D1 JUMP JUMPDEST SWAP4 POP PUSH2 0x1301 DUP2 DUP6 PUSH1 0x20 DUP7 ADD PUSH2 0xEDC JUMP JUMPDEST DUP1 DUP5 ADD SWAP2 POP POP SWAP3 SWAP2 POP POP JUMP JUMPDEST PUSH1 0x0 PUSH2 0x1319 DUP3 DUP5 PUSH2 0x12DC JUMP JUMPDEST SWAP2 POP DUP2 SWAP1 POP SWAP3 SWAP2 POP POP JUMP JUMPDEST PUSH32 0x41626F7274696E672C2063616C6C20776173206E6F7420737563636573736675 PUSH1 0x0 DUP3 ADD MSTORE PUSH32 0x6C00000000000000000000000000000000000000000000000000000000000000 PUSH1 0x20 DUP3 ADD MSTORE POP JUMP JUMPDEST PUSH1 0x0 PUSH2 0x1380 PUSH1 0x21 DUP4 PUSH2 0xF61 JUMP JUMPDEST SWAP2 POP PUSH2 0x138B DUP3 PUSH2 0x1324 JUMP JUMPDEST PUSH1 0x40 DUP3 ADD SWAP1 POP SWAP2 SWAP1 POP JUMP JUMPDEST PUSH1 0x0 PUSH1 0x20 DUP3 ADD SWAP1 POP DUP2 DUP2 SUB PUSH1 0x0 DUP4 ADD MSTORE PUSH2 0x13AF DUP2 PUSH2 0x1373 JUMP JUMPDEST SWAP1 POP SWAP2 SWAP1 POP JUMP INVALID LOG2 PUSH5 0x6970667358 0x22 SLT KECCAK256 0xFB SWAP16 0xDA DUP2 DUP13 BYTE 0xB2 DUP2 DELEGATECALL SGT 0xB6 RETURNDATASIZE 0xAC DIFFICULTY SIGNEXTEND MSTORE 0x5D JUMP 0xF6 JUMPDEST GAS DUP12 0x4A CALL SLT ADD 0xC2 0x2C PUSH1 0x9B GASPRICE 0xF6 PUSH5 0x736F6C6343 STOP ADDMOD LT STOP CALLER "
				},
				"gasEstimates": {
					"creation": {
						"codeDepositCost": "1020000",
						"executionCost": "25327",
						"totalCost": "1045327"
					},
					"external": {
						"allowance(address)": "2814",
						"confirmationsFromGuardiansForReset()": "351",
						"guardians(address)": "2846",
						"isAllowedToSend(address)": "2868",
						"owner()": "2555",
						"proposeNewOwner(address)": "63045",
						"setAllowance(address,uint256)": "49460",
						"setGuardian(address,bool)": "27203",
						"transfer(address,uint256,bytes)": "infinite"
					}
				},
				"methodIdentifiers": {
					"allowance(address)": "3e5beab9",
					"confirmationsFromGuardiansForReset()": "83012be1",
					"guardians(address)": "0633b14a",
					"isAllowedToSend(address)": "0bc605ad",
					"owner()": "8da5cb5b",
					"proposeNewOwner(address)": "b1f8100d",
					"setAllowance(address,uint256)": "310ec4a7",
					"setGuardian(address,bool)": "2b8a1c5a",
					"transfer(address,uint256,bytes)": "be45fd62"
				}
			},
			"storageLayout": {
				"storage": [
					{
						"astId": 20,
						"contract": "contracts/SmartContractWallet.sol:SmartContractWallet",
						"label": "owner",
						"offset": 0,
						"slot": "0",
						"type": "t_address_payable"
					},
					{
						"astId": 24,
						"contract": "contracts/SmartContractWallet.sol:SmartContractWallet",
						"label": "allowance",
						"offset": 0,
						"slot": "1",
						"type": "t_mapping(t_address,t_uint256)"
					},
					{
						"astId": 28,
						"contract": "contracts/SmartContractWallet.sol:SmartContractWallet",
						"label": "isAllowedToSend",
						"offset": 0,
						"slot": "2",
						"type": "t_mapping(t_address,t_bool)"
					},
					{
						"astId": 32,
						"contract": "contracts/SmartContractWallet.sol:SmartContractWallet",
						"label": "guardians",
						"offset": 0,
						"slot": "3",
						"type": "t_mapping(t_address,t_bool)"
					},
					{
						"astId": 34,
						"contract": "contracts/SmartContractWallet.sol:SmartContractWallet",
						"label": "nextOwner",
						"offset": 0,
						"slot": "4",
						"type": "t_address_payable"
					},
					{
						"astId": 40,
						"contract": "contracts/SmartContractWallet.sol:SmartContractWallet",
						"label": "nextOwnerGuardianVotedBool",
						"offset": 0,
						"slot": "5",
						"type": "t_mapping(t_address,t_mapping(t_address,t_bool))"
					},
					{
						"astId": 42,
						"contract": "contracts/SmartContractWallet.sol:SmartContractWallet",
						"label": "guardiansResetCount",
						"offset": 0,
						"slot": "6",
						"type": "t_uint256"
					}
				],
				"types": {
					"t_address": {
						"encoding": "inplace",
						"label": "address",
						"numberOfBytes": "20"
					},
					"t_address_payable": {
						"encoding": "inplace",
						"label": "address payable",
						"numberOfBytes": "20"
					},
					"t_bool": {
						"encoding": "inplace",
						"label": "bool",
						"numberOfBytes": "1"
					},
					"t_mapping(t_address,t_bool)": {
						"encoding": "mapping",
						"key": "t_address",
						"label": "mapping(address => bool)",
						"numberOfBytes": "32",
						"value": "t_bool"
					},
					"t_mapping(t_address,t_mapping(t_address,t_bool))": {
						"encoding": "mapping",
						"key": "t_address",
						"label": "mapping(address => mapping(address => bool))",
						"numberOfBytes": "32",
						"value": "t_mapping(t_address,t_bool)"
					},
					"t_mapping(t_address,t_uint256)": {
						"encoding": "mapping",
						"key": "t_address",
						"label": "mapping(address => uint256)",
						"numberOfBytes": "32",
						"value": "t_uint256"
					},
					"t_uint256": {
						"encoding": "inplace",
						"label": "uint256",
						"numberOfBytes": "32"
					}
				}
			},
			"userdoc": {
				"kind": "user",
				"methods": {},
				"version": 1
			}
		}
	}
}